:020000040800F2
:10000000F815002045010008AD1800084513000848
:100010004D140008D10E00086D1E000800000000FD
:10002000000000000000000000000000F51A0008B9
:10003000F71000080000000035190008E11B000857
:100040005F0100085F0100085F0100085F01000810
:100050005F0100085F0100085F0100085F01000800
:100060005F0100085F010008F9100008D50E0008C4
:100070005F0100085F010008D90E00085F01000859
:100080005F0100085F0100085F0100085F010008D0
:100090005F0100085F0100085F0100085F010008C0
:1000A0005F0100085F0100085F0100085F010008B0
:1000B0004D1C00085F0100085F0100085F01000897
:1000C0005F0100085F0100085F0100085F01000890
:1000D0005F010008511C00085F0100085F01000873
:1000E0005F0100085F0100085F0100085F01000870
:1000F0005F0100085F0100085F0100085F01000860
:100100005F0100085F0100085F0100085F0100084F
:100110005F0100085F0100085F0100085F0100083F
:100120005F0100085F0100085F0100085F0100082F
:10013000DFF80CD000F062F8004800478525000881
:10014000F81500200648804706480047FEE7FEE70E
:10015000FEE7FEE7FEE7FEE7FEE7FEE7FEE7FEE777
:10016000ED1B000831010008D2B201E000F8012BBC
:10017000491EFBD270470022F6E710B513460A4627
:1001800004461946FFF7F0FF204610BD421C10F848
:10019000011B0029FBD1801A70472DE9F05F05464D
:1001A000002092469B4688460646814640241BE036
:1001B000284641464746224600F041F853465A46F3
:1001C000C01A914110D311461846224600F028F873
:1001D0002D1A67EB01084F4622460120002100F04E
:1001E0001FF817EB00094E41201EA4F10104DFDCCB
:1001F000484631462A464346BDE8F09F064C074D27
:1002000006E0E06840F0010394E8070098471034E6
:10021000AC42F6D3FFF790FFA82B0008C82B0008CC
:10022000202A04DB203A00FA02F1002070479140B6
:10023000C2F1200320FA03F3194390407047202AAB
:1002400004DB203A21FA02F00021704721FA02F380
:10025000D040C2F12002914008431946704721B1B5
:10026000826842F00102826003E0826822F00102AB
:100270008260704721B1826842F48072826003E03C
:10028000826822F4807282607047000030B50246B6
:100290000020002350680F4C20400D790C6844EA80
:1002A00005242043506090680B4C2040D1E9025453
:1002B0002C434D7944EA450420439060D06A20F4F1
:1002C00070000C7C641EE4B2234340EA0350D06209
:1002D00030BD0000FFFEF0FFFDF7F1FFF0B5044672
:1002E0000D4600200021092D11DDE068A5F10A0668
:1002F00006EB4607072606FA07F18843A5F10A062A
:1003000006EB460603FA06F10843E0600CE02069BC
:1003100005EB4507072606FA07F1884305EB450676
:1003200003FA06F108432061072A0FDA606B561EB4
:1003300006EB86071F2606FA07F18843561E06EBD2
:10034000860605FA06F10843606322E00D2A0FDAFB
:10035000206BD61F06EB86071F2606FA07F1884397
:10036000D61F06EB860605FA06F10843206310E067
:10037000E06AA2F10D0606EB86071F2606FA07F1D2
:100380008843A2F10D0606EB860605FA06F108433E
:10039000E062F0BD21B1826842F4A002826003E015
:1003A000826822F4A0028260704710B500F098F8CD
:1003B00000F0C8F800F00AF900F09AFA00F034F9F9
:1003C00000F04FF900F04EF910BD00007CB500249C
:1003D00000F0AAFC01F0AAF9044627A12B4801F07D
:1003E00035FF2A48FFF7D2FE85B200204FF6FF7195
:1003F0002B46264ACDE9001014210A2001F028F9E5
:10040000224623A1214801F021FF2048FFF7BEFE2C
:1004100085B200204FF6FF712B461C4ACDE9001033
:1004200028210A2001F014F91EA1184801F00EFF3E
:100430001648FFF7ABFE85B200204FF6FF712B4642
:10044000124ACDE900103C210A2001F001F91CA15B
:100450000E4801F0FBFE0D48FFF798FE85B2002024
:100460004FF6FF712B46094ACDE9001050211420A8
:1004700001F0EEF87CBD00005468697320697320B8
:10048000612053504920546573742E0012110020CE
:1004900054686520535049206964203D20307825F8
:1004A000782E0000546869732069732061205465B8
:1004B000787420666F7220736176653A00000000E0
:1004C00049276D2050542C2054686973206973208B
:1004D0006D79207361766520746578742E00000054
:1004E00010B50021084601F021F8024908700846BD
:1004F000007810BD2E00002010B5082A00DB10BDCA
:1005000010B90A4B1970FAE701F00101074B1B788B
:1005100001249440A343054C237023461B7801FA21
:1005200002F42343014C237000BFE8E72E000020B3
:1005300010B503480178012000F0F8FF10BD00005D
:100540002E00002010B50121074801F091FC002188
:10055000064801F08DFC0021054801F089FC0021CE
:10056000044801F085FC10BD40100020541000200C
:10057000681000207C10002010B50D490968C8B231
:100580000C4900F0EFFF0C49D1F80811C8B20B4933
:1005900000F0E8FF0A490968C8B20A4900F0E2FF22
:1005A0000549D1F81011C8B2074900F0DBFF10BDB2
:1005B000000121424010002000002342541000207E
:1005C0000C012342681000207C1000200A480B49CF
:1005D00048600B4888600B480B4948600B488860AE
:1005E0000B480C4948600C4888600C480C4948602E
:1005F0000C48886070470000911E000840100020E1
:10060000931E0008A91E000854100020AB1E00080D
:10061000DD1E000868100020DF1E0008011F000812
:100620007C100020031F000808B500204FF4F07371
:100630004FF4A0720146009000F0BAFFFF2014238F
:100640001A0100210090084600F0B2FF4FF47F40ED
:1006500014231A014FF4E6710090002000F0A8FF67
:1006600008BD70477CB50024FFF7B0FE2FA13748C6
:1006700001F0ECFD3548FFF789FDC4B222460A219E
:10068000324800F0F5FE80213048FFF774FD30A1BC
:10069000394801F0DBFD3848FFF778FD85B20020CE
:1006A0004FF6FF712B46344ACDE9001064210A2031
:1006B00000F0CEFF31A1304801F0C8FD2E48FFF711
:1006C00065FD85B200204FF6FF712B462A4ACDE921
:1006D000001078210A2000F0BBFF22460A211B48A7
:1006E00000F0F8FF1948FFF751FD85B200204FF6E2
:1006F000FF712B46154ACDE900108C21142000F023
:10070000A7FF23A11C4801F0A1FD1B48FFF73EFDF8
:1007100085B200204FF6FF712B46174ACDE9001035
:10072000B4210A2000F094FF7CBD000049276D2011
:1007300050542C2054686973206973206D7920739C
:1007400061766520746578742E00000076110020B3
:100750005361766520746578742077726974656E6C
:1007600020616E6420746578742062756620636C05
:1007700065617265642E0000121100205361766578
:10078000207465787420726561642E2E2E0000003E
:1007900054657374204F7665722E00000146002266
:1007A0000948007A01238B4000EA030232B106486F
:1007B000007A01238B409843034B18720AB1012041
:1007C00070470020FCE70000341000204748007804
:1007D00000B9704700204549087008464068401C31
:1007E0004860084640681421B0FBF1F201FB12009A
:1007F00058B93E484068B0FBF1F030B13B48007A50
:1008000020F00100401C394908723848406828210E
:10081000B0FBF1F201FB120058B934484068B0FB5C
:10082000F1F030B13148007A20F00200801C2F49ED
:1008300008722E4840686421B0FBF1F201FB1200FF
:1008400058B92A484068B0FBF1F030B12748007A27
:1008500020F00400001D2549087224484068C82182
:10086000B0FBF1F201FB120058B920484068B0FB20
:10087000F1F030B11D48007A20F0080008301B4923
:1008800008721A4840684FF4FA71B0FBF1F201FBAC
:10089000120058B915484068B0FBF1F030B1134868
:1008A000007A20F010001030104908720F4840689C
:1008B0004FF47A71B0FBF1F201FB120058B90B480A
:1008C0004068B0FBF1F030B10848007A20F0200019
:1008D00020300649087205484068B0F57A7F02D991
:1008E00001200249486000BF73E700003410002077
:1008F00010B582210348FFF73EFC03A001F096FCEF
:1009000010BD00009010002048656C6C6F20576F80
:10091000726C64210000000010B5002400F098FD06
:10092000044600BF2C4840780128FBD001202A490A
:100930004870224629A12848801C01F087FC2648DF
:10094000801CFFF723FC2449087008460178801CAE
:1009500000F084FA00202049087000F07EFD044673
:1009600000BF1D4840780128FBD001201A4948707B
:1009700022461DA11848801C01F068FC1648801C06
:10098000FFF704FC1449087008460178801C00F049
:1009900065FA00201049087000F064FD044600BFAD
:1009A0000D4840780128FBD001200B4948702246B1
:1009B00010A10948801C01F049FC0748801CFFF782
:1009C000E5FB0549087008460178801C00F046FAEE
:1009D00000200149087010BD9010002020204164C3
:1009E00063303A20256400002020416463313A20BE
:1009F000256400002020416463323A2025640A0007
:100A000000B585B00121480200F0C2FF4FF440401C
:100A100000F092FF01F0BCFA01F08AFA0020009089
:100A200001208DF804008DF805004FF4602002903D
:100A30000020039003208DF8100069461148FFF74D
:100A400025FC0523012208210E48FFF747FC05235A
:100A5000022209210B48FFF741FC05230322012153
:100A60000848FFF73BFC01210648FFF703FC012182
:100A70000448FFF7F4FB01210248FFF78BFC05B0A7
:100A800000BD0000002401400146032900DB0021D5
:100A9000014830F8110070472800002010B500F020
:100AA0000FF800F071F900F04FF800F09DF9FFF732
:100AB000A7FF00F071F800F01FF800F035F910BD45
:100AC00008B50121102000F063FF684600F032FCF9
:100AD000FF20ADF8000010208DF8030002208DF8F3
:100AE00002006946034800F096FBFF21014800F030
:100AF0001FFC08BD001001401FB501F065FA01217F
:100B0000880500F035FF0020ADF804004BF6FF70BB
:100B1000ADF806000A20ADF808004FF48060ADF88B
:100B20000A000001ADF80C00054800906946054830
:100B300000F016FC0121034800F006FC1FBD000078
:100B4000801A06000058004008B50121042000F07A
:100B50001FFF0121402000F01BFF684600F0EAFB68
:100B60000120ADF8000028208DF8030002208DF848
:100B700002006946064800F04EFB1C20ADF800005C
:100B800048208DF803006946024800F044FB08BD88
:100B9000000801400018014010B501F061FA01F0B1
:100BA00029FAE92000F0B4F8202000F0B7F811206D
:100BB00000F0AEF84FF4FA7401E0601E84B2002C2D
:100BC000FBDC3A2000F0A4F8552000F0A7F8D12073
:100BD00000F09EF8002000F0A1F8652000F09EF8DB
:100BE0001F2000F09BF8D02000F092F8072000F0C2
:100BF00095F8072000F092F8802000F08FF836205A
:100C000000F086F8482000F089F8C12000F080F854
:100C1000102000F083F8102000F080F8022000F08F
:100C20007DF8022000F07AF8C02000F071F8002072
:100C300000F074F8352000F071F8002000F06EF834
:100C4000002000F06BF8012000F068F8022000F0AE
:100C500065F8C42000F05CF8032000F05FF8C520C0
:100C600000F056F8012000F059F8D22000F050F8BA
:100C7000012000F053F8222000F050F8E72000F0A7
:100C800047F8382000F04AF8F32000F041F8082037
:100C900000F044F8122000F041F8122000F03EF875
:100CA000082000F03BF8C82000F032F8012000F0E6
:100CB00035F8522000F032F8372000F02FF81020DD
:100CC00000F02CF80D2000F029F8012000F026F8A3
:100CD000042000F023F8512000F020F8772000F0E5
:100CE0001DF8012000F01AF8012000F017F80D207F
:100CF00000F014F8082000F011F8802000F00EF841
:100D0000002000F00BF8292000F002F810BD0000D0
:100D10000149088070470000FE07006C0149088007
:100D2000704700000008006C00B585B001F0E4F9E0
:100D30000121880300F01CFE0020ADF800004FF4F4
:100D40008270ADF802000020ADF804000220ADF87A
:100D500006000120ADF808004002ADF80A000020AE
:100D6000ADF80C00ADF80E000720ADF81000694694
:100D7000044800F0A1FE0121024800F083FE05B006
:100D800000BD00000038004030B5144800684FF442
:100D90007A72B0FBF2F1B1F1807F00D31DE021F057
:100DA0007F40401E4FF0E022506150170F22002874
:100DB00007DA13071D0E0A4B00F00F04241F1D5500
:100DC00003E013071C0E074B1C5400BF00204FF01C
:100DD000E02290610720106100BF30BD00000020BC
:100DE00018ED00E000E400E01FB5012144F201002D
:100DF00000F0CEFD01F0BEF94FF4E130009000208C
:100E0000ADF80400ADF80600ADF80800ADF80C0030
:100E10000C20ADF80A0069460F4800F0B7FF012228
:100E200040F225510C4800F08CFF01210A4800F0E7
:100E30003CFF01F0C1F940F22551074800F026FFC0
:100E40002021054801F00EF800BF4021024800F0C3
:100E500041FF0128F9D11FBD0038014030B58BB0EA
:100E600005460C460121084600F072FD01F06EF9BE
:100E7000154800F05DF8154800900195102002908B
:100E80000394002004908020059000200690079095
:100E900008904FF48050099000200A9069460A4853
:100EA00000F00BF90121084800F036F80122022178
:100EB000054800F0F9F8012280210448001F00F0E5
:100EC00000FF0BB030BD0000440002400438014078
:100ED00000BFFEE77047000010B54FF4005000F06F
:100EE000CDF8012806D10020034948704FF4E040B6
:100EF00000F004F810BD00009010002000F08051B8
:100F000011B10349086001E00249486070470000E0
:100F1000040402400000024021B1026842F00102D4
:100F2000026004E002684FF6FE731A4002607047E8
:100F300001684FF6FE7211400160002101604160BE
:100F40008160C1604B49884208D14A4908394968E3
:100F500041F00F01474A083A51608AE0454914318F
:100F6000884208D143490839496841F0F001414AB3
:100F7000083A51607DE03F492831884208D13D4917
:100F80000839496841F470613A4A083A516070E0A2
:100F900038493C31884208D136490839496841F41A
:100FA0007041344A083A516063E032495031884216
:100FB00008D130490839496841F470212D4A083A6E
:100FC000516056E02B496431884208D129490839DB
:100FD000496841F47001274A083A516049E02549BF
:100FE0007831884208D123490839496841F0706155
:100FF000204A083A51603CE01F49884206D1011F4F
:10100000096841F00F01021F116032E01A491431E2
:10101000884208D11849091F096841F0F001164AB1
:10102000121F116025E014492831884208D1124965
:10103000091F096841F470610F4A121F116018E01E
:101040000D493C31884208D10B49091F096841F418
:101050007041094A121F11600BE007495031884264
:1010600007D10549091F096841F47021024A121F7E
:101070001160704708000240080402400146002049
:10108000002201F0805313B1054B1A6801E0054BB3
:101090001A6802EA01030BB1012000E0002070474A
:1010A00000040240000002401AB103680B430360D1
:1010B00002E003688B430360704710B500220268AA
:1010C00047F6F0739A430C6A8B6823430C692343F9
:1010D0004C6923438C692343CC6923434C6A2343E3
:1010E0008C6A23431A430260CB6843600B688360B9
:1010F0004B68C36010BD70477047000051B182005B
:10110000A2F1C042126842F001038200A2F1C04283
:10111000136009E08200A2F1C0421268034B1A403A
:101120008300A3F1C0431A6070470000FEFF0F0068
:10113000D0E901121143C2681143026911434269A7
:10114000114382691143C2691143026A1143426A21
:101150001143826A1143C26A1143026B1143026850
:101160009200A2F1C0421160816808290BD1016888
:101170008900A1F1C041096841F04002016889007D
:10118000A1F1C0410A60416B0968426B526841EAB3
:101190000211426B926841EA0221426B928941EA54
:1011A0000241426B128A41EA0251426B127D41EACE
:1011B0000261426B926911430268521C9200A2F1D3
:1011C000C0421160C16AB1F5804F1BD1816B0968C3
:1011D000826B526841EA0211826B926841EA0221F5
:1011E000826B128A41EA0251826B127D41EA0261EE
:1011F000826B9269114302689200A2F1C042C2F868
:10120000041107E06FF0704201688900A1F1C0414C
:10121000C1F8042170472DE9F0410246002500265F
:10122000002000230024002791F803C00CF00F05D4
:1012300091F803C00CF0100CBCF1000F03D091F832
:1012400002C04CEA050591F800C0BCF1000F31D096
:10125000146800202BE04FF0010C0CFA00F3B1F8F9
:1012600000C00CEA03069E4220D183004FF00F0C11
:101270000CFA03F7BC4305FA03FC4CEA040491F8AA
:1012800003C0BCF1280F06D14FF0010C0CFA00FC92
:10129000C2F814C00AE091F803C0BCF1480F05D1B0
:1012A0004FF0010C0CFA00FCC2F810C0401C0828DA
:1012B000D1D31460B1F800C0BCF1FF0F34DD546825
:1012C00000202EE000F1080C4FF0010808FA0CF3A2
:1012D000B1F800C00CEA03069E4221D183004FF012
:1012E0000F0C0CFA03F7BC4305FA03FC4CEA0404A8
:1012F00091F803C0BCF1280F05D100F1080C08FAE1
:101300000CF8C2F8148091F803C0BCF1480F07D163
:1013100000F1080C4FF0010808FA0CF8C2F8108030
:10132000401C0828CED35460BDE8F081416170476D
:10133000016170474FF6FF71018002218170042125
:10134000C170704700BFFEE721B1028842F0010280
:10135000028004E002884FF6FE731A400280704754
:101360002DE9F04385B004460D460026B14604271A
:10137000DFF8CC80A6884FF6C0700640684600F0C3
:1013800017FBDDF808802F48B8FBF0F01FFA80F952
:1013900046EA0906A68020884FF6FE7108402080A4
:1013A00000262949286888420CD828684000B8FBE4
:1013B000F0F087B2042F00DA04273E4309F1010060
:1013C000208427E0E8884BF6FF71884206D1286820
:1013D00000EB4000B8FBF0F087B209E0286800EBB2
:1013E000C00101EB0010B8FBF0F087B247F4804772
:1013F000C7F30B0008B947F0010747F40040064364
:101400004FF4967009FB00F04FF47A7190FBF1F005
:10141000401C2084A683208840F00100208026887C
:101420004FF6F5300640A8886989084306432680B0
:10143000A88929890843208105B0BDE8F083000010
:1014400000127A0040420F00A086010000BFFEE7B4
:1014500010B50020FFF718FB10BD10B50120FFF7F5
:1014600013FB10BD10B50220FFF70EFB10BD0000EE
:101470002DE9F04781460F461646C7F30F38C7F3EC
:101480000B0ACAF58054A64200DA344647E04FEA18
:1014900008314FF48052244800F01CF9002508E080
:1014A0000AEB05002049085CFF2800D003E0681C17
:1014B00085B2A542F4DB00BFA54217DA4FEA083037
:1014C00000F05CF9002507E019F805000AEB0501BA
:1014D000154A5054681C85B2A542F5DB4FEA083125
:1014E0004FF48052104800F07DF904E0224639465E
:1014F000484600F077F9B44200D111E0A1442744F6
:10150000301B86B208F101001FFA80F84FF0000A84
:10151000B6F5805F02DD4FF4805400E03446B6E754
:1015200000BFBDE8F08700003400002010B502467F
:10153000002012B1012A0FD103E0094BDB68D8B2B9
:101540000BE0074BDB6823F0FF03054CE360234609
:10155000DB680B43E36000E000BF00BF10BD00008C
:101560000010014070B505460C466078A84212D1C3
:101570000120E0702078401C20702078192807DDB9
:10158000A07828B90020E0700120A0706068804732
:10159000E06880470AE0E078012801D1A068804730
:1015A0002069804700202070E070A07070BD0000AE
:1015B0002DE9F0470746884614461D46DDF8209081
:1015C0002B4622464146384600F00EF8002603E03E
:1015D0000448A0F80090761C04FB05F0B042F7D850
:1015E000BDE8F0870008006C2DE9F04104460D4687
:1015F00016461F462A20FFF78BFB2012FFF78EFBB3
:10160000E0B2FFF78BFBA119491EC1F30F20FFF7D2
:1016100085FBA119491EC8B2FFF780FB2B20FFF7FD
:1016200077FB2812FFF77AFBE8B2FFF777FBE9199F
:10163000491EC1F30F20FFF771FBE919491EC8B21B
:10164000FFF76CFB2C20FFF763FBBDE8F081000087
:101650002DE9F05F06468B46174698461023082270
:1016600059463046FFF7C0FF00242AE006EBC401CC
:1016700088B2102308225946FFF7B6FF00251CE068
:10168000385D2038114901EB001010F805A04FF02B
:1016900000090DE00AF0010008B90B9800E00A9873
:1016A0000B4908804FEA6A0A09F1010000F0FF09BE
:1016B000B9F1080FEEDB681CC5B2102DE0DB601C31
:1016C00084B24445D2DBBDE8F09F0000B825000895
:1016D0000008006C70B505460C46164600F080FD0B
:1016E0004FF400511048FFF721FE032000F0C2F82C
:1016F000C4F3074000F0BEF8C4F3072000F0BAF8C6
:10170000E0B200F0B7F804E0FF2000F0B3F8287072
:101710006D1C301EA6F10106F6D14FF400510248AF
:10172000FFF706FE70BD00000020014010B5002448
:101730004FF400511048FFF7F9FD902000F09AF89F
:10174000002000F097F8002000F094F8002000F04E
:1017500091F8FF2000F08EF804464FF6FF7000EA83
:101760000424FF2000F086F804434FF4005102489F
:10177000FFF7DEFD204610BD0020014010B50446F5
:1017800000F02EFD00F01CF84FF400510B48FFF75D
:10179000CDFD202000F06EF8C4F3074000F06AF899
:1017A000C4F3072000F066F8E0B200F063F84FF4ED
:1017B00000510248FFF7BCFD10BD000000200140B1
:1017C00010B54FF400510648FFF7B0FD062000F0B9
:1017D00051F84FF400510248FFF7AAFD10BD000078
:1017E000002001402DE9F04107460D461446E8B2BD
:1017F000C0F58076B44200DA264635E000F0F0FC11
:10180000FFF7DEFF4FF400511948FFF78FFD02206C
:1018100000F030F8C5F3074000F02CF8C5F30720BE
:1018200000F028F8E8B200F025F84FF0000807E0D3
:10183000387800F01FF87F1C08F101001FFA80F8CB
:10184000B045F5DB4FF400510948FFF771FDB44294
:1018500000D10AE03544A01B84B2B4F5807F02DDDC
:101860004FF4807600E02646C8E700BFBDE8F0816F
:101870000020014010B5044600BF02210A4800F0D4
:101880000DF90028F9D02146074800F013F900BFF0
:101890000121054800F002F90028F9D0024800F0C3
:1018A00006F9C0B210BD00000038004070470000CB
:1018B00070B5002100230F22C47804B3154C2468AE
:1018C00004F4E064C4F5E064210AC1F10403CA40F1
:1018D000447804FA03F184781440214309010E4C42
:1018E0000678A155047804F01F050124AC40057862
:1018F0006D11AD0005F1E025C5F8004109E004785F
:1019000004F01F050124AC40044D0678761145F81B
:10191000264070BD0CED00E000E400E080E100E056
:1019200002490143024A1160704700000000FA05B5
:101930000CED00E07047000001460020034A5068AB
:1019400020F44040084350607047000000100240FF
:1019500029B1064A52690243044B5A6104E0034A22
:1019600052698243014B5A617047000000100240E7
:1019700029B1064AD2690243044BDA6104E0034A02
:10198000D2698243014BDA617047000000100240C7
:1019900029B1064A92690243044B9A6104E0034A62
:1019A00092698243014B9A61704700000010024027
:1019B00030B500210022002400232D4D6D6805F074
:1019C0000C0121B1042905D0082923D105E0294DB6
:1019D000056022E0274D05601FE0254D6D6805F488
:1019E0007012234D6D6805F48034022505EB924298
:1019F0001CB9214D554305600BE01D4D6D6805F484
:101A000000351DB11C4D5543056002E0194D55438D
:101A1000056002E0174D056000BF00BF144D6D6802
:101A200005F0F0010909154D6B5C0568DD40456066
:101A30000F4D6D6805F4E061090A104D6B5C456857
:101A4000DD4085600A4D6D6805F46051C90A0B4D93
:101A50006B5C4568DD40C560054D6D6805F440412F
:101A6000890B074D6B5CC568B5FBF3F5056130BDAF
:101A70000010024000127A0000093D00140000200E
:101A80002400002021B1028842F04002028004E0DC
:101A900002884FF6BF731A4002807047024600204A
:101AA00013890B400BB1012000E000207047014674
:101AB000888970478181704710B50022028802F43E
:101AC00041520B884C8823438C882343CC88234382
:101AD0000C8923434C8923438C892343CC8923439A
:101AE0001A430280838B4FF2FF74234083830B8A57
:101AF000038210BD704710B500F002F810BD000061
:101B00000CB50020019000903348006840F480300C
:101B10003149086000BF3048006800F40030009090
:101B20000198401C0190009818B90198B0F5A06F79
:101B3000F1D12948006800F4003010B10120009074
:101B400001E0002000900098012843D1234800685C
:101B500040F01000214908600846006820F00300AA
:101B600008600846006840F0020008601A484068B3
:101B7000194948600846406848600846406840F493
:101B8000806048600846406820F47C104860084641
:101B9000406840F4E81048600846006840F08070F3
:101BA000086000BF0C48006800F000700028F9D001
:101BB0000948406820F0030007494860084640682B
:101BC00040F00200486000BF0348406800F00C008D
:101BD0000828F9D10CBD000000100240002002408E
:101BE00001200149087070473410002010B51348D7
:101BF000006840F00100114908600846406810493B
:101C000008400E494860084600680E4908400B49E4
:101C100008600846006820F4802008600846406894
:101C200020F4FE0048604FF41F008860FFF763FF58
:101C30004FF000600449086010BD00000010024031
:101C40000000FFF8FFFFF6FE08ED00E0704700001F
:101C500010B540F225510B4800F049F858B1094839
:101C6000001D0088C1B2084802780078401C064B6D
:101C70001870981C815440F22551024800F006F873
:101C800010BD0000003801409010002010B5002267
:101C9000002340F66A14A14200D100BF0A120124B9
:101CA0009440A3B2DC43048010BD21B1828942F488
:101CB0000052828104E082894DF6FF731A408281CE
:101CC00070471AB1838A0B43838202E0838A8B4375
:101CD0008382704702460020B1F5007F00D100BF2B
:101CE00013880B400BB1012000E00020704770B555
:101CF0000246002400230025002040F66A16B14267
:101D000000D100BFC1F3421501F01F03012606FAFE
:101D100003F3012D02D19689334006E0022D02D152
:101D2000168A334001E0968A33400C12012606FAE7
:101D300004F41688344013B10CB1012000E00020F7
:101D400070BDF0B50346002400260025002040F6B3
:101D50006A17B94200D100BF1846C1F3421401F01E
:101D60001F06012707FA06F5012C01D10C3004E00B
:101D7000022C01D1103000E014301AB107682F4353
:101D8000076002E00768AF430760F0BD2DE9F04748
:101D900086B005460E460024A24600BFA146002795
:101DA000B08900B100BF2F462C8A4CF6FF7004406A
:101DB000F08804432C82AC894EF6F3100440B088BE
:101DC00031890843718908430443AC81AC8A4FF6DA
:101DD000FF400440B0890443AC8201A8FFF7E8FD4E
:101DE0001F48874202D1DDF810A001E0DDF80CA009
:101DF000A88900F4004040B10AEBCA0000EB0A10C9
:101E000031684900B0FBF1F807E00AEBCA0000EBCB
:101E10000A1031688900B0FBF1F86420B8FBF0F0DB
:101E200004012009642101FB1089A88900F4004005
:101E300040B1322000EBC900B0FBF1F000F0070028
:101E4000044308E0322000EB09106421B0FBF1F0FC
:101E500000F00F0004432C8106B0BDE8F0870000BD
:101E600000380140C1F308028280704700BFFEE7DE
:101E700070B504460D4614212046FEF77CF9034850
:101E80006060A060E0602061657070BD2F1F000879
:101E9000704710B54FF0E0208069C4B2002221469F
:101EA0001046FEF729FB10BD704770B5FEF718FB12
:101EB0000546082408E0601E012101FA00F02840D0
:101EC00000B903E0601EC4B2002CF4DC00BF601E49
:101ED000C2B201210846FEF70FFB70BD704710B576
:101EE000FEF7FEFAFF2805D00022FF211046FEF77C
:101EF00003FB04E0002211461046FEF7FDFA10BD78
:101F0000704770B5FEF7ECFA0546002406E00120A4
:101F1000A040284000B103E0601C44B2082CF6DB6E
:101F200000BFE2B200210120FEF7E6FA70BD704763
:101F300000B58BB001210846FFF70AFD1148FEF7F6
:101F4000F7FF1148009011480190002002900320F3
:101F500003900020049080200590400006908000AF
:101F60000790202008900002099000200A906946FE
:101F70000448FFF7A2F801210248FEF7CDFF0BB09D
:101F800000BD0000080002404C2401402800002051
:101F900008B501210C20FFF7FBFC0320ADF8000081
:101FA00000208DF8030069460548FFF734F9022048
:101FB000ADF8000069460348FFF72DF908BD0000A1
:101FC000000C01400008014008B501210820FFF77E
:101FD000DFFC4FF44060ADF8000003208DF80200F4
:101FE0001C208DF8030069460148FFF714F908BD6D
:101FF000000C014000B597B0022001900020029033
:102000000520039000200490059006904FF080502A
:10201000079006200890002009900A9010200B904D
:1020200000200C900E900F9010904FF48050119063
:10203000002012904FF4804013900020149001A8CB
:102040001590169001210802FFF782FC08A8FFF7FF
:102050006FF801210620FFF751F817B000BD00000E
:1020600010B501214FF4B070FFF792FC1F480068D3
:1020700000F0FF201D4908600846006840F0BB10D2
:102080000860081D00680020091D086008460068F7
:1020900040F0BB3008601648006820F00F0014497B
:1020A00008600846006840F00B0008600846406879
:1020B00020F4702048600846406840F430204860B2
:1020C0000C48006820F070400A4908600846006823
:1020D00040F030400860081D00680020091D0860BD
:1020E0000846006840F0BB30086010BD0014014095
:1020F000002001400018014008B501214FF4847010
:10210000FFF746FC4FF46040ADF8000003208DF867
:10211000020018208DF8030069460A48FFF77BF893
:102120004FF40050ADF8000010208DF80300694610
:102130000548FFF770F84FF400510348FFF7F8F82F
:1021400008BD0000000C01400020014008B54FF41C
:10215000C060FFF7E5FB0E208DF8000001208DF830
:1021600001008DF802008DF803006846FFF7A0FB20
:1021700008BD000008B501210420FFF709FC4FF459
:102180000070ADF8000018208DF8030003208DF8D2
:10219000020069460748FFF73EF84FF48060ADF84B
:1021A000000004208DF8030069460248FFF733F869
:1021B00008BD00000008014008B54FF4C060FFF7FB
:1021C000AFFB25208DF8000000208DF801008DF870
:1021D000020001208DF803006846FFF769FB08BD87
:1021E00070B50024002500BF28466D1CB0F1704F6B
:1021F00002D34FF0FF3070BD4FF400510A48FFF793
:1022000095F80520FFF736FBFF20FFF733FB44B2BC
:102210004FF400510448FFF78BF804F00100002848
:10222000E2D100BFE7E70000002001400FB4054BFA
:1022300010B503A9044A029800F02CF810BC5DF810
:1022400014FB000061250008300000200FB4084B8B
:1022500010B504A902AA039800F01CF8044602A9CC
:10226000002000F077F9204610BC5DF814FB000058
:102270005525000802E008C8121F08C1002AFAD13B
:1022800070477047002001E001C1121F002AFBD1F6
:10229000704700002DE9FF4F8DB09B460F46044666
:1022A000002606E025280BD05A460F999047641C5B
:1022B000761C20780028F5D111B03046BDE8F08FAB
:1022C0000025A8460122984900E0054314F8013F83
:1022D000203B02FA03F00842F7D120782E2817D1CC
:1022E00014F8010F45F004052A280ED06FF02F02D4
:1022F0002078A0F1300109290AD808EB880102EB07
:10230000410100EB0108641CF2E757F8048B641CE0
:1023100020786C280DD004DC4C2812D06A2811D10A
:1023200004E074280DD07A280CD10AE045F4001599
:1023300007E0617845F48015814202D1641C05F5FF
:102340008015641C2278692A45D008DC002AB3D0A5
:10235000582A69D0632A10D0642A08D13BE0702A39
:1023600067D0732A13D0752A5CD0782A5CD01046C7
:102370005A460F999047761CD3E017F8040B8DF856
:10238000000000208DF80100E946012003E057F825
:10239000049B4FF0FF3069074FF0000501D40AE0BD
:1023A0006D1C45450DDA8542FADB19F80510002948
:1023B000F6D106E06D1C8542FCDB19F805100029FA
:1023C000F8D12E4404E019F8010B5A460F999047B2
:1023D0006D1EF8D2A5E00A200021CDE90801C5F361
:1023E000025002280DD001CFC117031E71F1000366
:1023F0000DDA4FF0000CD0EB0C006CEB01012D233B
:1024000008E0FF1D27F00707F7E80201EDE72B05BD
:1024100004D52B238DF8283001233BE0EB0739D07E
:102420002023F7E70A2000E010200021CDE9080171
:1024300007E01020002145F00405CDE908014FF028
:102440000808C5F3025002280FD001CF00214FF039
:10245000000A2B071FD5702A0DD0DDE908C38CF0C8
:10246000100C5CEA030C0CD015E0FF1D27F00707E9
:10247000F7E80201EBE740228DF828204FF0010A2F
:102480000BE050EA010306D030238DF828308DF898
:10249000292002239A46582A04D024A20DF12009AB
:1024A0000B9209E026A2F9E7DDE90823FDF775FEA6
:1024B0000B9B9B5C09F8013D50EA0102F4D1ADEBA6
:1024C000090020300890680701D44FF001080899EE
:1024D000884502DDA8EB010000E0002080460025D1
:1024E00006E00AA85A46405D0F9990476D1C761C7D
:1024F0005545F6DB04E030205A460F999047761C8C
:10250000B8F10001A8F10108F5DC05E019F8010BAC
:102510005A460F999047761C0899481E0890002942
:10252000F4DC641CC5E600000928010030313233B8
:1025300034353637383961626364656600000000FF
:1025400030313233343536373839414243444546E9
:10255000000000000A68531C0B60107070470000F8
:1025600070B504460D46E1B20548FFF77BFC00BF9D
:1025700040210348FFF7AEFB0128F9D1204670BD8A
:1025800000380140FEF78AFAFDF70FFF13E0FEF76F
:102590001DF90120FEF702F908B1FDF7EDFF022059
:1025A000FEF7FCF808B1FDF7C3FF0520FEF7F6F8CB
:1025B00008B1FEF7B1F9EAE70000000000000000F2
:1025C00000000000000000000000000808080808E3
:1025D0000808000008080000004824241200000039
:1025E00000000000000000000000004848487E2471
:1025F00024247E24242400000000103C5252121C8B
:1026000030505052523C1010000000222515150D7C
:102610002A585454522200000000000C1212120AD0
:1026200076252919916E00000006040402000000BE
:102630000000000000000000004020101008080802
:1026400008080810102040000002040808101010AC
:1026500010101008080402000000000008086B1C9D
:102660001C6B0808000000000000000000101010A3
:10267000FE1010100000000000000000000000002C
:10268000000000000604040200000000000000003A
:102690007E000000000000000000000000000000BC
:1026A000000000000606000000004020202010105E
:1026B00008080804040202000000001824424242F4
:1026C0004242424224180000000000101C1010106A
:1026D00010101010107C00000000003C42424240EC
:1026E00020100804427E00000000003C42424020CE
:1026F00018204042423C00000000002030302824D6
:102700002422FE2020F800000000007E0202021EAB
:1027100022404042221C0000000000182402023A1D
:1027200046424242443800000000007E4220201011
:1027300010080808080800000000003C424242243B
:1027400018244242423C00000000001C2242424247
:10275000625C4040241800000000000000001818CF
:102760000000000018180000000000000000000831
:1027700000000000000808080000004020100804C5
:1027800002040810204000000000000000007E004D
:10279000007E00000000000000000002040810207D
:1027A00040201008040200000000003C4242462085
:1027B00010101000181800000000001C225A555577
:1027C0005555553A423C0000000000080818141402
:1027D000243C224242E700000000001F2222221E69
:1027E00022424242221F00000000007C42420101BE
:1027F00001010142221C00000000001F224242424F
:1028000042424242221F00000000003F4212121EBC
:1028100012120242423F00000000003F4212121E0C
:1028200012120202020700000000003C22220101F5
:1028300001712122221C0000000000E742424242B6
:102840007E42424242E700000000003E08080808BD
:1028500008080808083E00000000007C1010101056
:10286000101010101010110F0000007722120A0E25
:102870000A12122222770000000000070202020260
:1028800002020202427F0000000000773636363630
:10289000362A2A2A2A6B0000000000E346464A4AEC
:1028A00052525262624700000000001C2241414126
:1028B00041414141221C00000000003F424242428F
:1028C0003E020202020700000000001C22414141BA
:1028D0004141414D321C60000000003F4242423EF7
:1028E0001212222242C700000000007C4242020471
:1028F00018204042423E00000000007F49080808BE
:1029000008080808081C0000000000E74242424294
:1029100042424242423C0000000000E74242222480
:1029200024141418080800000000006B2A2A2A2A20
:102930002A36141414140000000000E7422424185E
:102940001818242442E70000000000772222141403
:1029500008080808081C00000000007E2120101054
:1029600008040442423F00000078080808080808EC
:102970000808080808087800000002040404080891
:102980000810102020204040001E101010101010C1
:102990001010101010101E0000182400000000007D
:1029A0000000000000000000000000000000000027
:1029B00000000000000000FF00060800000000000A
:1029C0000000000000000000000000000000001CEB
:1029D00022302C22326C0000000000000302021A98
:1029E00026424242261A0000000000000000003883
:1029F0004402020244380000000000006040407CB5
:102A00004242424262DC0000000000000000003C44
:102A100042427E02423C0000000000003048083E76
:102A200008080808083E0000000000000000007CC4
:102A300022221C023C42423C000000000302023AF7
:102A40004642424242E700000000000C0C00000E2B
:102A500008080808083E0000000000303000003878
:102A6000202020202020221E0000000003020272ED
:102A7000120A0E1222770000000000080E08080853
:102A800008080808083E0000000000000000007F61
:102A90009292929292B70000000000000000003B6A
:102AA0004642424242E70000000000000000003CB5
:102AB00042424242423C0000000000000000001B75
:102AC00026424242261A0207000000000000005879
:102AD00064424242645840E0000000000000007779
:102AE0004C040404041F0000000000000000007CEF
:102AF00042023C40423E0000000000000008083E48
:102B000008080808483000000000000000000063CA
:102B10004242424262DC00000000000000000077F8
:102B2000222214140808000000000000000000DB4E
:102B300091525A2A24240000000000000000006E78
:102B4000241818182476000000000000000000E798
:102B50004224241818080806000000000000007E27
:102B600022100808447E000000C0202020202020E1
:102B7000102020202020C000101010101010101065
:102B800010101010101010100003040404040404AA
:102B90000804040404040300045A20000000000098
:102BA0000000000000000000C82B0008000000200A
:102BB0003400000074220008FC2B000834000020C0
:102BC000C41500008422000800A24A04000000008E
:102BD00000000000010203040607080900000000CD
:102BE000010203040102030406070809020406089F
:0C2BF000000000000000000000000000D9
:0400000508000131BD
:00000001FF
