:020000040800F2
:100000001005002045010008FF07000875070008DB
:100010007907000841060008E50C00080000000010
:100020000000000000000000000000007D09000842
:10003000470600080000000085080008690A00085B
:100040005F0100085F0100085F0100085F01000810
:100050005F0100085F0100085F0100085F01000800
:100060005F0100085F010008490600084506000816
:100070005F0100085F0100085F0100085F010008E0
:100080005F0100085F0100085F0100085F010008D0
:100090005F0100085F0100085F0100085F010008C0
:1000A0005F0100085F0100085F0100085F010008B0
:1000B000D50A00085F0100085F0100085F01000821
:1000C0005F0100085F0100085F0100085F01000890
:1000D0005F010008D90A00085F0100085F010008FD
:1000E0005F0100085F0100085F0100085F01000870
:1000F0005F0100085F0100085F0100085F01000860
:100100005F0100085F0100085F0100085F0100084F
:100110005F0100085F0100085F0100085F0100083F
:100120005F0100085F0100085F0100085F0100082F
:10013000DFF80CD000F02AF800480047890E0008CC
:10014000100500200648804706480047FEE7FEE706
:10015000FEE7FEE7FEE7FEE7FEE7FEE7FEE7FEE777
:10016000750A000831010008D2B201E000F8012B45
:10017000491EFBD270470022F6E710B513460A4627
:1001800004461946FFF7F0FF204610BD064C074D08
:1001900006E0E06840F0010394E807009847103457
:1001A000AC42F6D3FFF7C8FFB40E0008D40E000827
:1001B00010B500F007F800F037F800F079F800F01B
:1001C0004FF910BD10B50021084600F0D7FA0249DA
:1001D00008700846007810BD2800002010B5082AD5
:1001E00000DB10BD10B90A4B1970FAE701F00101EC
:1001F000074B1B7801249440A343054C23702346EE
:100200001B7801FA02F42343014C237000BFE8E796
:100210002800002010B503480178012000F0AEFA54
:1002200010BD00002800002010B50121074800F093
:100230005BFD0021064800F057FD0021054800F055
:1002400053FD0021044800F04FFD10BD3C0000208C
:1002500050000020640000207800002010B50D49F7
:100260000968C8B20C4900F0A5FA0C49D1F8081188
:10027000C8B20B4900F09EFA0A490968C8B20A4997
:1002800000F098FA0549D1F81011C8B2074900F0FA
:1002900091FA10BD000121423C00002000002342E1
:1002A000500000200C012342640000207800002050
:1002B0000A480B4948600B4888600B480B49486066
:1002C0000B4888600B480C4948600C4888600C4813
:1002D0000C4948600C48886070470000090D000810
:1002E0003C0000200B0D0008210D000850000020EC
:1002F000230D0008550D000864000020570D00086C
:10030000790D0008780000207B0D000801460022CE
:100310000948007A01238B4000EA030232B1064803
:10032000007A01238B409843034B18720AB10120D5
:1003300070470020FCE700003000002047480078AC
:1003400000B9704700204549087008464068401CC5
:100350004860084640681421B0FBF1F201FB12002E
:1003600058B93E484068B0FBF1F030B13B48007AE4
:1003700020F00100401C39490872384840682821A3
:10038000B0FBF1F201FB120058B934484068B0FBF1
:10039000F1F030B13148007A20F00200801C2F4982
:1003A00008722E4840686421B0FBF1F201FB120094
:1003B00058B92A484068B0FBF1F030B12748007ABC
:1003C00020F00400001D2549087224484068C82117
:1003D000B0FBF1F201FB120058B920484068B0FBB5
:1003E000F1F030B11D48007A20F0080008301B49B8
:1003F00008721A4840684FF4FA71B0FBF1F201FB41
:10040000120058B915484068B0FBF1F030B11348FC
:10041000007A20F010001030104908720F48406830
:100420004FF47A71B0FBF1F201FB120058B90B489E
:100430004068B0FBF1F030B10848007A20F02000AD
:1004400020300649087205484068B0F57A7F02D925
:1004500001200249486000BF73E70000300000201F
:1004600010B581210348FFF786FE03A000F0D2FCFF
:1004700010BD00008C00002048656C6C6F20576F29
:10048000726C64210000000010B50F48007800B9BC
:1004900010BD00240EE00C48401C015D0B4800F02C
:1004A0001DFC00BF4021094800F04FFB0128F9D195
:1004B000601CC4B204480078A042ECDC0020024971
:1004C000087000BFE4E700008C0000200038014005
:1004D00010B500F007F800F049F800F01FF800F040
:1004E00075F810BD08B50121102000F0CDF968465F
:1004F00000F038F9FF20ADF8000010208DF803005F
:1005000002208DF802006946034800F09EF8FF21A2
:10051000014800F025F908BD0010014008B501218F
:10052000042000F0B1F90121402000F0ADF9684647
:1005300000F018F90120ADF8000028208DF8030024
:1005400002208DF802006946064800F07EF81C2063
:10055000ADF8000048208DF803006946024800F01D
:1005600074F808BD000801400018014030B5144877
:1005700000684FF47A72B0FBF2F1B1F1807F00D3E2
:100580001DE021F07F40401E4FF0E02250615017E7
:100590000F22002807DA13071D0E0A4B00F00F0484
:1005A000241F1D5503E013071C0E074B1C5400BFEE
:1005B00000204FF0E02290610720106100BF30BDA5
:1005C0000000002018ED00E000E400E01FB501216C
:1005D00044F2010000F058F900F0E6FB4FF4E1307E
:1005E00000900020ADF80400ADF80600ADF808005A
:1005F000ADF80C000C20ADF80A0069460F4800F079
:1006000001FB012240F225510C4800F0D5FA0121EE
:100610000A4800F08EFA00F0E9FB40F22551074845
:1006200000F078FA2021054800F058FB00BF402177
:10063000024800F08AFA0128F9D11FBD00380140B4
:1006400000BFFEE77047704770472DE9F041024652
:1006500000250026002000230024002791F803C075
:100660000CF00F0591F803C00CF0100CBCF1000F5A
:1006700003D091F802C04CEA050591F800C0BCF126
:10068000000F31D0146800202BE04FF0010C0CFA61
:1006900000F3B1F800C00CEA03069E4220D18300AB
:1006A0004FF00F0C0CFA03F7BC4305FA03FC4CEABD
:1006B000040491F803C0BCF1280F06D14FF0010CDF
:1006C0000CFA00FCC2F814C00AE091F803C0BCF1B7
:1006D000480F05D14FF0010C0CFA00FCC2F810C015
:1006E000401C0828D1D31460B1F800C0BCF1FF0F42
:1006F00034DD546800202EE000F1080C4FF00108B2
:1007000008FA0CF3B1F800C00CEA03069E4221D1AE
:1007100083004FF00F0C0CFA03F7BC4305FA03FCFF
:100720004CEA040491F803C0BCF1280F05D100F194
:10073000080C08FA0CF8C2F8148091F803C0BCF158
:10074000480F07D100F1080C4FF0010808FA0CF827
:10075000C2F81080401C0828CED35460BDE8F08158
:10076000016170474FF6FF71018002218170042101
:10077000C170704700BFFEE700BFFEE710B502463C
:10078000002012B1012A0FD103E0094BDB68D8B277
:100790000BE0074BDB6823F0FF03054CE3602346C7
:1007A000DB680B43E36000E000BF00BF10BD00004A
:1007B0000010014070B505460C466078A84212D181
:1007C0000120E0702078401C20702078192807DD77
:1007D000A07828B90020E0700120A07060688047F0
:1007E000E06880470AE0E078012801D1A0688047EE
:1007F0002069804700202070E070A07070BD7047B5
:1008000070B5002100230F22C47804B3154C24686E
:1008100004F4E064C4F5E064210AC1F10403CA40B1
:10082000447804FA03F184781440214309010E4C02
:100830000678A155047804F01F050124AC40057822
:100840006D11AD0005F1E025C5F8004109E004781F
:1008500004F01F050124AC40044D0678761145F8DC
:10086000264070BD0CED00E000E400E080E100E017
:1008700002490143024A1160704700000000FA0576
:100880000CED00E07047000029B1064A926902436E
:10089000044B9A6104E0034A92698243014B9A61D6
:1008A000704700000010024030B5002100220024F3
:1008B00000232D4D6D6805F00C0121B1042905D0F0
:1008C000082923D105E0294D056022E0274D056068
:1008D0001FE0254D6D6805F47012234D6D6805F419
:1008E0008034022505EB92421CB9214D5543056029
:1008F0000BE01D4D6D6805F400351DB11C4D5543D1
:10090000056002E0194D5543056002E0174D056092
:1009100000BF00BF144D6D6805F0F0010909154DC9
:100920006B5C0568DD4045600F4D6D6805F4E06166
:10093000090A104D6B5C4568DD4085600A4D6D68A5
:1009400005F46051C90A0B4D6B5C4568DD40C5601C
:10095000054D6D6805F44041890B074D6B5CC5681A
:10096000B5FBF3F5056130BD0010024000127A00BE
:1009700000093D001400002024000020704710B53D
:1009800000F002F810BD00000CB5002001900090AE
:100990003348006840F480303149086000BF304877
:1009A000006800F4003000900198401C019000980D
:1009B00018B90198B0F5A06FF1D12948006800F48A
:1009C000003010B10120009001E00020009000985C
:1009D000012843D12348006840F0100021490860F5
:1009E0000846006820F0030008600846006840F0F0
:1009F000020008601A484068194948600846406883
:100A000048600846406840F4806048600846406896
:100A100020F47C1048600846406840F4E8104860C4
:100A20000846006840F08070086000BF0C4800680D
:100A300000F000700028F9D00948406820F0030059
:100A4000074948600846406840F00200486000BF1F
:100A50000348406800F00C000828F9D10CBD0000E4
:100A60000010024000200240012001490870704738
:100A70003000002010B51348006840F00100114913
:100A8000086008464068104908400E49486008461A
:100A900000680E4908400B4908600846006820F4C9
:100AA000802008600846406820F4FE0048604FF44B
:100AB0001F008860FFF763FF4FF000600449086083
:100AC00010BD0000001002400000FFF8FFFFF6FE1E
:100AD00008ED00E07047000010B540F225510B48CA
:100AE00000F040F858B10948001D0088C1B208481C
:100AF00002780078401C064B1870581C815440F254
:100B00002551024800F006F810BD000000380140F1
:100B10008C00002010B50022002340F66A14A14288
:100B200000D100BF0A1201249440A3B2DC43048028
:100B300010BD21B1828942F40052828104E0828991
:100B40004DF6FF731A408281704702460020B1F5CE
:100B5000007F00D100BF13880B400BB1012000E0E3
:100B60000020704770B502460024002300250020B5
:100B700040F66A16B14200D100BFC1F3421501F040
:100B80001F03012606FA03F3012D02D19689334093
:100B900006E0022D02D1168A334001E0968A3340E6
:100BA0000C12012606FA04F41688344013B10CB175
:100BB000012000E0002070BDF0B5034600240026AF
:100BC0000025002040F66A17B94200D100BF184640
:100BD000C1F3421401F01F06012707FA06F5012CA4
:100BE00001D10C3004E0022C01D1103000E01430AF
:100BF0001AB107682F43076002E00768AF43076038
:100C0000F0BD00002DE9F04786B005460E460024F1
:100C1000A24600BFA1460027B08900B100BF2F4601
:100C20002C8A4CF6FF700440F08804432C82AC8977
:100C30004EF6F3100440B0883189084371890843A7
:100C40000443AC81AC8A4FF6FF400440B0890443B2
:100C5000AC8201A8FFF728FE1F48874202D1DDF8C9
:100C600010A001E0DDF80CA0A88900F4004040B11C
:100C70000AEBCA0000EB0A1031684900B0FBF1F83A
:100C800007E00AEBCA0000EB0A1031688900B0FBEC
:100C9000F1F86420B8FBF0F004012009642101FBA5
:100CA0001089A88900F4004040B1322000EBC9004F
:100CB000B0FBF1F000F00700044308E0322000EB45
:100CC00009106421B0FBF1F000F00F0004432C8107
:100CD00006B0BDE8F087000000380140C1F308020B
:100CE0008280704700BFFEE770B504460D461421B0
:100CF0002046FFF740FA03486060A060E060206192
:100D0000657070BDA70D0008704710B54FF0E0206A
:100D10008069C4B2002221461046FFF75FFA10BD79
:100D2000704770B5FFF74EFA0546082408E0601ECC
:100D3000012101FA00F0284000B903E0601EC4B2AE
:100D4000002CF4DC00BF601EC2B201210846FFF790
:100D500045FA70BD704710B5FFF734FAFF2805D08B
:100D60000022FF211046FFF739FA04E00022114665
:100D70001046FFF733FA10BD704770B5FFF722FA3F
:100D80000546002406E00120A040284000B103E011
:100D9000601C44B2082CF6DB00BFE2B20021012047
:100DA000FFF71CFA70BD704708B501210420FFF75A
:100DB0006BFD4FF40070ADF8000018208DF80300B3
:100DC00003208DF8020069460748FFF73EFC4FF408
:100DD0008060ADF8000004208DF8030069460248E9
:100DE000FFF733FC08BD00000008014008B54FF4D0
:100DF000E060FFF73DFD25208DF8000000208DF814
:100E000001008DF8020001208DF803006846FFF70D
:100E1000F7FC08BD014A024900F013B8650E00084E
:100E20002C00002002E008C8121F08C1002AFAD1D5
:100E300070477047002001E001C1121F002AFBD15A
:100E400070472DE9F04116460F460446002503E0A1
:100E50003946B047641C6D1C20780028F8D128461C
:100E6000BDE8F08170B504460D46E1B20548FFF7D4
:100E700035FF00BF40210348FFF767FE0128F9D185
:100E8000204670BD00380140FFF722FBFFF790F9C4
:100E90000FE0FFF753FA0120FFF738FA18B1FFF718
:100EA000DDF9FFF7F1FA0220FFF730FA08B1FFF79A
:100EB000B1F9EEE7D40E0008000000203000000079
:100EC000240E0008040F000830000020E004000099
:100ED000340E000800A24A040000000000000000D8
:100EE00001020304060708090000000001020304D0
:100EF00001020304060708090204060800000000B6
:040F000000000000ED
:0400000508000131BD
:00000001FF
