:020000040800F2
:100000001005002045010008630A0008D90900080E
:10001000DD09000891060008790F000800000000C3
:10002000000000000000000000000000010C0008BB
:10003000AB08000800000000E90A0008ED0C000809
:100040005F0100085F0100085F0100085F01000810
:100050005F0100085F0100085F0100085F01000800
:100060005F0100085F010008AD0800089506000860
:100070005F0100085F010008970600085F010008A3
:100080005F0100085F0100085F0100085F010008D0
:100090005F0100085F0100085F0100085F010008C0
:1000A0005F0100085F0100085F0100085F010008B0
:1000B000590D00085F0100085F0100085F0100089A
:1000C0005F0100085F0100085F0100085F01000890
:1000D0005F0100085D0D00085F0100085F01000876
:1000E0005F0100085F0100085F0100085F01000870
:1000F0005F0100085F0100085F0100085F01000860
:100100005F0100085F0100085F0100085F0100084F
:100110005F0100085F0100085F0100085F0100083F
:100120005F0100085F0100085F0100085F0100082F
:10013000DFF80CD000F02AF800480047451100080D
:10014000100500200648804706480047FEE7FEE706
:10015000FEE7FEE7FEE7FEE7FEE7FEE7FEE7FEE777
:10016000F90C000831010008D2B201E000F8012BBF
:10017000491EFBD270470022F6E710B513460A4627
:1001800004461946FFF7F0FF204610BD064C074D08
:1001900006E0E06840F0010394E807009847103457
:1001A000AC42F6D3FFF7C8FF7011000890110008A9
:1001B00010B500F007F800F037F800F079F800F01B
:1001C0004FF910BD10B50021084600F009FC0249A6
:1001D00008700846007810BD2800002010B5082AD5
:1001E00000DB10BD10B90A4B1970FAE701F00101EC
:1001F000074B1B7801249440A343054C23702346EE
:100200001B7801FA02F42343014C237000BFE8E796
:100210002800002010B503480178012000F0E0FB21
:1002200010BD00002800002010B50121074800F093
:10023000A5FE0021064800F0A1FE0021054800F0BF
:100240009DFE0021044800F099FE10BD3C000020F6
:1002500050000020640000207800002010B50D49F7
:100260000968C8B20C4900F0D7FB0C49D1F8081155
:10027000C8B20B4900F0D0FB0A490968C8B20A4964
:1002800000F0CAFB0549D1F81011C8B2074900F0C7
:10029000C3FB10BD000121423C00002000002342AE
:1002A000500000200C012342640000207800002050
:1002B0000A480B4948600B4888600B480B49486066
:1002C0000B4888600B480C4948600C4888600C4813
:1002D0000C4948600C488860704700009D0F00087A
:1002E0003C0000209F0F0008B50F000850000020C0
:1002F000B70F0008E90F000864000020EB0F0008AA
:100300000D100008780000200F10000801460022A0
:100310000948007A01238B4000EA030232B1064803
:10032000007A01238B409843034B18720AB10120D5
:1003300070470020FCE700003000002047480078AC
:1003400000B9704700204549087008464068401CC5
:100350004860084640681421B0FBF1F201FB12002E
:1003600058B93E484068B0FBF1F030B13B48007AE4
:1003700020F00100401C39490872384840682821A3
:10038000B0FBF1F201FB120058B934484068B0FBF1
:10039000F1F030B13148007A20F00200801C2F4982
:1003A00008722E4840686421B0FBF1F201FB120094
:1003B00058B92A484068B0FBF1F030B12748007ABC
:1003C00020F00400001D2549087224484068C82117
:1003D000B0FBF1F201FB120058B920484068B0FBB5
:1003E000F1F030B11D48007A20F0080008301B49B8
:1003F00008721A4840684FF4FA71B0FBF1F201FB41
:10040000120058B915484068B0FBF1F030B11348FC
:10041000007A20F010001030104908720F48406830
:100420004FF47A71B0FBF1F201FB120058B90B489E
:100430004068B0FBF1F030B10848007A20F02000AD
:1004400020300649087205484068B0F57A7F02D925
:1004500001200249486000BF73E70000300000201F
:1004600010B581210348FFF786FE03A000F030FE9F
:1004700010BD00008C00002048656C6C6F20576F29
:10048000726C64210000000010B50748007800B9C4
:1004900010BD05480178401C00F0C0F8002002495A
:1004A000087000BFF4E700008C00002010B500F0D9
:1004B00007F800F049F800F01FF800F075F810BDDB
:1004C00008B50121102000F021FB684600F07CFAFD
:1004D000FF20ADF8000010208DF8030002208DF8F9
:1004E00002006946034800F0E2F9FF21014800F0EC
:1004F00069FA08BD0010014008B50121042000F090
:1005000005FB0121402000F001FB684600F05CFA89
:100510000120ADF8000028208DF8030002208DF89E
:1005200002006946064800F0C2F91C20ADF8000040
:1005300048208DF803006946024800F0B8F908BD6C
:10054000000801400018014030B5144800684FF41D
:100550007A72B0FBF2F1B1F1807F00D31DE021F09F
:100560007F40401E4FF0E022506150170F220028BC
:1005700007DA13071D0E0A4B00F00F04241F1D5548
:1005800003E013071C0E074B1C5400BF00204FF064
:10059000E02290610720106100BF30BD0000002004
:1005A00018ED00E000E400E01FB5012144F2010075
:1005B00000F0ACFA00F056FD4FF4E130009000205E
:1005C000ADF80400ADF80600ADF80800ADF80C0079
:1005D0000C20ADF80A0069460F4800F05DFC0122CE
:1005E00040F225510C4800F032FC01210A4800F08D
:1005F000E2FB00F059FD40F22551074800F0CCFB2A
:100600002021054800F0B4FC00BF4021024800F062
:10061000E7FB0128F9D11FBD0038014030B58BB090
:1006200005460C460121084600F060FA00F006FD80
:10063000154800F057F815480090019510200290D9
:1006400003940020049080200590002006900790DD
:1006500008904FF48050099000200A9069460A489B
:1006600000F005F90121084800F030F801220221CC
:10067000054800F0F3F8012280210448001F00F033
:10068000A6FB0BB030BD000044000240043801401E
:1006900000BFFEE7704710B54FF4005000F0C8F8F7
:1006A000012803D14FF4E04000F002F810BD000033
:1006B00000F0805111B10349086001E0024948602F
:1006C00070470000040402400000024021B10268AB
:1006D00042F00102026004E002684FF6FE731A4025
:1006E0000260704701684FF6FE7211400160002100
:1006F000016041608160C1604B49884208D14A492C
:100700000839496841F00F01474A083A51608AE0C8
:1007100045491431884208D143490839496841F0B4
:10072000F001414A083A51607DE03F492831884252
:1007300008D13D490839496841F470613A4A083A9C
:10074000516070E038493C31884208D13649083957
:10075000496841F47041344A083A516063E03249D3
:100760005031884208D130490839496841F4702134
:100770002D4A083A516056E02B496431884208D12D
:1007800029490839496841F47001274A083A5160FB
:1007900049E025497831884208D123490839496818
:1007A00041F07061204A083A51603CE01F4988429C
:1007B00006D1011F096841F00F01021F116032E0EC
:1007C0001A491431884208D11849091F096841F0B3
:1007D000F001164A121F116025E0144928318842A1
:1007E00008D11249091F096841F470610F4A121FAC
:1007F000116018E00D493C31884208D10B49091FAE
:10080000096841F47041094A121F11600BE0074961
:100810005031884207D10549091F096841F4702108
:10082000024A121F1160704708000240080402408B
:1008300001460020002201F0805313B1054B1A68D5
:1008400001E0054B1A6802EA01030BB1012000E048
:100850000020704700040240000002401AB1036803
:100860000B43036002E003688B430360704710B5DD
:100870000022026847F6F0739A430C6A8B682343A0
:100880000C6923434C6923438C692343CC6923437C
:100890004C6A23438C6A23431A430260CB6843604B
:1008A0000B6883604B68C36010BD704770472DE9CB
:1008B000F0410246002500260020002300240027E6
:1008C00091F803C00CF00F0591F803C00CF0100C68
:1008D000BCF1000F03D091F802C04CEA050591F875
:1008E00000C0BCF1000F31D0146800202BE04FF0A5
:1008F000010C0CFA00F3B1F800C00CEA03069E42AA
:1009000020D183004FF00F0C0CFA03F7BC4305FA1B
:1009100003FC4CEA040491F803C0BCF1280F06D193
:100920004FF0010C0CFA00FCC2F814C00AE091F878
:1009300003C0BCF1480F05D14FF0010C0CFA00FCCC
:10094000C2F810C0401C0828D1D31460B1F800C010
:10095000BCF1FF0F34DD546800202EE000F1080CDC
:100960004FF0010808FA0CF3B1F800C00CEA0306D6
:100970009E4221D183004FF00F0C0CFA03F7BC43C9
:1009800005FA03FC4CEA040491F803C0BCF1280FFB
:1009900005D100F1080C08FA0CF8C2F8148091F89F
:1009A00003C0BCF1480F07D100F1080C4FF001085B
:1009B00008FA0CF8C2F81080401C0828CED3546006
:1009C000BDE8F081016170474FF6FF71018002219F
:1009D00081700421C170704700BFFEE700BFFEE7D1
:1009E00010B50246002012B1012A0FD103E0094BD5
:1009F000DB68D8B20BE0074BDB6823F0FF03054C44
:100A0000E3602346DB680B43E36000E000BF00BF08
:100A100010BD00000010014070B505460C4660781E
:100A2000A84212D10120E0702078401C207020786C
:100A3000192807DDA07828B90020E0700120A070F7
:100A400060688047E06880470AE0E078012801D1CB
:100A5000A06880472069804700202070E070A07067
:100A600070BD704770B5002100230F22C47804B315
:100A7000154C246804F4E064C4F5E064210AC1F173
:100A80000403CA40447804FA03F1847814402143F3
:100A900009010E4C0678A155047804F01F050124C5
:100AA000AC4005786D11AD0005F1E025C5F80041B9
:100AB00009E0047804F01F050124AC40044D0678D9
:100AC000761145F8264070BD0CED00E000E400E032
:100AD00080E100E002490143024A116070470000D2
:100AE0000000FA050CED00E07047000029B1064A4D
:100AF00052690243044B5A6104E0034A526982433B
:100B0000014B5A61704700000010024029B1064AAB
:100B100092690243044B9A6104E0034A926982435A
:100B2000014B9A61704700000010024030B500216F
:100B30000022002400232D4D6D6805F00C0121B129
:100B4000042905D0082923D105E0294D056022E0BC
:100B5000274D05601FE0254D6D6805F47012234D8B
:100B60006D6805F48034022505EB92421CB9214DD5
:100B7000554305600BE01D4D6D6805F400351DB152
:100B80001C4D5543056002E0194D5543056002E0D8
:100B9000174D056000BF00BF144D6D6805F0F001F2
:100BA0000909154D6B5C0568DD4045600F4D6D68AA
:100BB00005F4E061090A104D6B5C4568DD40856015
:100BC0000A4D6D6805F46051C90A0B4D6B5C4568B0
:100BD000DD40C560054D6D6805F44041890B074D4A
:100BE0006B5CC568B5FBF3F5056130BD00100240D4
:100BF00000127A0000093D001400002024000020AB
:100C0000704710B500F002F810BD00000CB50020D0
:100C1000019000903348006840F48030314908600A
:100C200000BF3048006800F4003000900198401C7C
:100C30000190009818B90198B0F5A06FF1D129483A
:100C4000006800F4003010B10120009001E00020A5
:100C500000900098012843D12348006840F010001C
:100C6000214908600846006820F003000860084633
:100C7000006840F0020008601A484068194948605E
:100C80000846406848600846406840F48060486014
:100C90000846406820F47C1048600846406840F4EC
:100CA000E81048600846006840F08070086000BFA7
:100CB0000C48006800F000700028F9D0094840682E
:100CC00020F00300074948600846406840F00200F1
:100CD000486000BF0348406800F00C000828F9D1C4
:100CE0000CBD00000010024000200240012001491C
:100CF000087070473000002010B51348006840F0BD
:100D000001001149086008464068104908400E4932
:100D10004860084600680E4908400B4908600846CC
:100D2000006820F4802008600846406820F4FE0037
:100D300048604FF41F008860FFF763FF4FF00060CA
:100D40000449086010BD0000001002400000FFF8D8
:100D5000FFFFF6FE08ED00E07047000010B540F21E
:100D600025510B4800F049F858B10948001D00888A
:100D7000C1B2084802780078401C064B1870581C15
:100D8000815440F22551024800F006F810BD0000E1
:100D9000003801408C00002010B50022002340F6EE
:100DA0006A14A14200D100BF0A1201249440A3B2E8
:100DB000DC43048010BD21B1828942F4005282815B
:100DC00004E082894DF6FF731A40828170471AB1A0
:100DD000838A0B43838202E0838A8B43838270473A
:100DE00002460020B1F5007F00D100BF13880B4000
:100DF0000BB1012000E00020704770B502460024CE
:100E000000230025002040F66A16B14200D100BF41
:100E1000C1F3421501F01F03012606FA03F3012D69
:100E200002D19689334006E0022D02D1168A334062
:100E300001E0968A33400C12012606FA04F4168863
:100E4000344013B10CB1012000E0002070BDF0B5BA
:100E50000346002400260025002040F66A17B94208
:100E600000D100BF1846C1F3421401F01F0601274C
:100E700007FA06F5012C01D10C3004E0022C01D157
:100E8000103000E014301AB107682F43076002E009
:100E90000768AF430760F0BD2DE9F04786B005460F
:100EA0000E460024A24600BFA1460027B08900B12B
:100EB00000BF2F462C8A4CF6FF700440F088044394
:100EC0002C82AC894EF6F3100440B0883189084377
:100ED000718908430443AC81AC8A4FF6FF4004405B
:100EE000B0890443AC8201A8FFF720FE1F48874267
:100EF00002D1DDF810A001E0DDF80CA0A88900F413
:100F0000004040B10AEBCA0000EB0A10316849000A
:100F1000B0FBF1F807E00AEBCA0000EB0A103168F9
:100F20008900B0FBF1F86420B8FBF0F0040120095F
:100F3000642101FB1089A88900F4004040B13220EF
:100F400000EBC900B0FBF1F000F00700044308E03B
:100F5000322000EB09106421B0FBF1F000F00F002B
:100F600004432C8106B0BDE8F08700000038014042
:100F7000C1F308028280704700BFFEE770B50446E7
:100F80000D4614212046FFF7F6F803486060A06084
:100F9000E0602061657070BD3B100008704710B5BF
:100FA0004FF0E0208069C4B2002221461046FFF7CE
:100FB00015F910BD704770B5FFF704F90546082410
:100FC00008E0601E012101FA00F0284000B903E0AA
:100FD000601EC4B2002CF4DC00BF601EC2B201214E
:100FE0000846FFF7FBF870BD704710B5FFF7EAF849
:100FF000FF2805D00022FF211046FFF7EFF804E09C
:10100000002211461046FFF7E9F810BD704770B591
:10101000FFF7D8F80546002406E00120A04028404C
:1010200000B103E0601C44B2082CF6DB00BFE2B262
:1010300000210120FFF7D2F870BD704708B54FF4CA
:10104000C060FFF747FD0E208DF8000001208DF8ED
:1010500001008DF802008DF803006846FFF702FDDD
:1010600008BD000008B501210420FFF74FFD4FF433
:101070000070ADF8000018208DF8030003208DF8F3
:10108000020069460748FFF712FC4FF48060ADF894
:10109000000004208DF8030069460248FFF707FCB2
:1010A00008BD00000008014008B54FF4C060FFF71C
:1010B00011FD25208DF8000000208DF801008DF82D
:1010C000020001208DF803006846FFF7CBFC08BD45
:1010D000014A024900F013B8211100082C00002039
:1010E00002E008C8121F08C1002AFAD170477047F1
:1010F000002001E001C1121F002AFBD170472DE939
:10110000F04116460F460446002503E03946B04735
:10111000641C6D1C20780028F8D12846BDE8F081B9
:1011200070B504460D46E1B20548FFF721FF00BF48
:1011300040210348FFF754FE0128F9D1204670BD35
:1011400000380140FFF7B2F9FFF732F80FE0FFF780
:10115000F5F80120FFF7DAF818B1FFF77FF8FFF78D
:1011600093F90220FFF7D2F808B1FFF753F8EEE742
:10117000901100080000002030000000E01000087E
:10118000C011000830000020E0040000F01000084A
:1011900000A24A0400000000000000000102030455
:1011A000060708090000000001020304010203040D
:1011B00006070809020406080000000000000000FD
:0400000508000131BD
:00000001FF
