:020000040800F2
:10000000D8060020CD01000837080008AD07000819
:10001000B107000879060008B709000800000000D1
:100020000000000000000000000000005D08000863
:100030007F06000800000000390800084909000890
:10004000E7010008E7010008E7010008E7010008F0
:10005000E7010008E7010008E7010008E7010008E0
:10006000E7010008E7010008810600087D06000896
:10007000E7010008E7010008E7010008E7010008C0
:10008000E7010008E7010008E7010008E7010008B0
:10009000E7010008E7010008E7010008E7010008A0
:1000A000E7010008E7010008E7010008E701000890
:1000B000B5090008E7010008E7010008E7010008AA
:1000C000E7010008E7010008E7010008E701000870
:1000D000E7010008E7010008E7010008E701000860
:1000E000E7010008E7010008E7010008E701000850
:1000F000E7010008E7010008E7010008E701000840
:10010000E7010008E7010008E7010008E70100082F
:10011000E7010008E7010008E7010008E70100081F
:10012000E7010008E7010008E7010008E70100080F
:1001300000F002F800F03AF80AA090E8000C8244BF
:100140008344AAF10107DA4501D100F02FF8AFF29C
:10015000090EBAE80F0013F0010F18BFFB1A43F0A5
:10016000010318474009000060090000103A24BF4D
:1001700078C878C1FAD8520724BF30C830C144BF0C
:1001800004680C607047000000230024002500264E
:10019000103A28BF78C1FBD8520728BF30C148BFEA
:1001A0000B6070471FB51FBD10B510BD00F058F8AB
:1001B0001146FFF7F7FF00F061FC00F076F803B49A
:1001C000FFF7F2FF03BC00F07DF80000094880470C
:1001D00009480047FEE7FEE7FEE7FEE7FEE7FEE729
:1001E000FEE7FEE7FEE7FEE704480549054A064B41
:1001F000704700005509000831010008D8000020B0
:10020000D8060020D8020020D80200204FF00002BB
:1002100000B5134694469646203922BFA0E80C50FC
:10022000A0E80C50B1F12001BFF4F7AF090728BFD7
:10023000A0E80C5048BF0CC05DF804EB890028BF53
:1002400040F8042B08BF704748BF20F8022B11F07C
:10025000804F18BF00F8012B7047704770477047F8
:10026000754600F02BF8AE4605006946534620F06F
:100270000700854618B020B5FFF7B6FFBDE820405F
:100280004FF000064FF000074FF000084FF0000B52
:1002900021F00701AC46ACE8C009ACE8C009ACE805
:1002A000C009ACE8C0098D46704710B50446AFF3ED
:1002B00000802046BDE81040FFF781BF004870472E
:1002C0007400002001491820ABBEFEE726000200A2
:1002D000704710B500F006F800F036F800F078F836
:1002E00010BD000010B50021084600F063FA024975
:1002F00008700846007810BD1400002010B5082AC8
:1003000000DB10BD10B90A4B1970FAE701F00101CA
:10031000074B1B7801249440A343054C23702346CC
:100320001B7801FA02F42343014C237000BFE8E775
:100330001400002010B503480178012000F03AFABB
:1003400010BD00001400002010B50121074800F086
:1003500035FB0021064800F031FB0021054800F084
:100360002DFB0021044800F029FB10BD24000020D3
:10037000380000204C0000206000002010B50D491E
:100380000968C8B20C4900F031FA0C49D1F80811DB
:10039000C8B20B4900F02AFA0A490968C8B20A49EA
:1003A00000F024FA0549D1F81011C8B2074900F04D
:1003B0001DFA10BD0001214224000020000023424C
:1003C000380000200C0123424C0000206000002077
:1003D0000A480B4948600B4888600B480B49486045
:1003E0000B4888600B480C4948600C4888600C48F2
:1003F0000C4948600C48886070470000DD0900081F
:1004000024000020DF090008F5090008380000205A
:10041000F7090008290A00084C0000202B0A0008F0
:100420004D0A0008600000204F0A00080146002223
:100430000948007A01238B4000EA030232B10648E2
:10044000007A01238B409843034B18720AB10120B4
:1004500070470020FCE700001800002047480078A3
:1004600000B9704700204549087008464068401CA4
:100470004860084640681421B0FBF1F201FB12000D
:1004800058B93E484068B0FBF1F030B13B48007AC3
:1004900020F00100401C3949087238484068282182
:1004A000B0FBF1F201FB120058B934484068B0FBD0
:1004B000F1F030B13148007A20F00200801C2F4961
:1004C00008722E4840686421B0FBF1F201FB120073
:1004D00058B92A484068B0FBF1F030B12748007A9B
:1004E00020F00400001D2549087224484068C821F6
:1004F000B0FBF1F201FB120058B920484068B0FB94
:10050000F1F030B11D48007A20F0080008301B4996
:1005100008721A4840684FF4FA71B0FBF1F201FB1F
:10052000120058B915484068B0FBF1F030B11348DB
:10053000007A20F010001030104908720F4840680F
:100540004FF47A71B0FBF1F201FB120058B90B487D
:100550004068B0FBF1F030B10848007A20F020008C
:1005600020300649087205484068B0F57A7F02D904
:1005700001200249486000BF73E700001800002016
:1005800010B500F005F800F047F800F01DF810BDB8
:1005900008B50121102000F051F9684600F0FEF87E
:1005A000FF20ADF8000010208DF8030002208DF828
:1005B00002006946034800F064F8FF21014800F09A
:1005C000EBF808BD0010014008B50121042000F03F
:1005D00035F90121402000F031F9684600F0DEF8DD
:1005E0000120ADF8000028208DF8030002208DF8CE
:1005F00002006946064800F044F81C20ADF80000EF
:1006000048208DF803006946024800F03AF808BD1A
:10061000000801400018014030B5144800684FF44C
:100620007A72B0FBF2F1B1F1807F00D31DE021F0CE
:100630007F40401E4FF0E022506150170F220028EB
:1006400007DA13071D0E0A4B00F00F04241F1D5577
:1006500003E013071C0E074B1C5400BF00204FF093
:10066000E02290610720106100BF30BD0000002033
:1006700018ED00E000E400E000BFFEE770477047BF
:1006800070472DE9F0410246002500260020002396
:100690000024002791F803C00CF00F0591F803C067
:1006A0000CF0100CBCF1000F03D091F802C04CEA22
:1006B000050591F800C0BCF1000F31D0146800208E
:1006C0002BE04FF0010C0CFA00F3B1F800C00CEA7B
:1006D00003069E4220D183004FF00F0C0CFA03F763
:1006E000BC4305FA03FC4CEA040491F803C0BCF1D6
:1006F000280F06D14FF0010C0CFA00FCC2F814C010
:100700000AE091F803C0BCF1480F05D14FF0010C8D
:100710000CFA00FCC2F810C0401C0828D1D31460A9
:10072000B1F800C0BCF1FF0F34DD546800202EE0AA
:1007300000F1080C4FF0010808FA0CF3B1F800C002
:100740000CEA03069E4221D183004FF00F0C0CFAF5
:1007500003F7BC4305FA03FC4CEA040491F803C018
:10076000BCF1280F05D100F1080C08FA0CF8C2F80A
:10077000148091F803C0BCF1480F07D100F1080CB8
:100780004FF0010808FA0CF8C2F81080401C082845
:10079000CED35460BDE8F081016170474FF6FF7120
:1007A0000180022181700421C170704700BFFEE703
:1007B00000BFFEE710B50246002012B1012A0FD19A
:1007C00003E0094BDB68D8B20BE0074BDB6823F092
:1007D000FF03054CE3602346DB680B43E36000E066
:1007E00000BF00BF10BD00000010014070B50546FD
:1007F0000C466078A84212D10120E0702078401C9D
:1008000020702078192807DDA07828B90020E07032
:100810000120A07060688047E06880470AE0E078C7
:10082000012801D1A06880472069804700202070FE
:10083000E070A07070BD70477047000029B1064A93
:1008400092690243044B9A6104E0034A926982432D
:10085000014B9A617047000000100240704710B5CC
:1008600000F002F810BD00000CB5002001900090CF
:100870003348006840F480303149086000BF304898
:10088000006800F4003000900198401C019000982E
:1008900018B90198B0F5A06FF1D12948006800F4AB
:1008A000003010B10120009001E00020009000987D
:1008B000012843D12348006840F010002149086016
:1008C0000846006820F0030008600846006840F011
:1008D000020008601A4840681949486008464068A4
:1008E00048600846406840F48060486008464068B8
:1008F00020F47C1048600846406840F4E8104860E6
:100900000846006840F08070086000BF0C4800682E
:1009100000F000700028F9D00948406820F003007A
:10092000074948600846406840F00200486000BF40
:100930000348406800F00C000828F9D10CBD000005
:100940000010024000200240012001490870704759
:100950001800002010B51348006840F0010011494C
:10096000086008464068104908400E49486008463B
:1009700000680E4908400B4908600846006820F4EA
:10098000802008600846406820F4FE0048604FF46C
:100990001F008860FFF763FF4FF0006004490860A4
:1009A00010BD0000001002400000FFF8FFFFF6FE3F
:1009B00008ED00E0704700BFFEE7000070B5044698
:1009C0000D4614212046FFF721FC03486060A0601B
:1009D000E0602061657070BD7B0A0008704710B54B
:1009E0004FF0E0208069C4B2002221461046FFF794
:1009F00085FC10BD704770B5FFF774FC05460824F0
:100A000008E0601E012101FA00F0284000B903E06F
:100A1000601EC4B2002CF4DC00BF601EC2B2012113
:100A20000846FFF76BFC70BD704710B5FFF75AFC26
:100A3000FF2805D00022FF211046FFF75FFC04E0ED
:100A4000002211461046FFF759FC10BD704770B5E3
:100A5000FFF748FC0546002406E00120A04028409E
:100A600000B103E0601C44B2082CF6DB00BFE2B228
:100A700000210120FFF742FC70BD7047FFF780FDA9
:100A8000FFF727FC0DE0FFF7E9FC0120FFF7CEFCA4
:100A900008B1FFF773FC0220FFF7C8FC08B1FFF7AD
:100AA00049FCF0E7C40A000800000020180000001C
:100AB0006C010008DC0A000818000020C0060000D5
:100AC0008801000800A24A040000000000000000A5
:0C0AD000010203040607080900000000F2
:0400000508000131BD
:00000001FF
