:020000040800F2
:10000000B8060020CD010008610A00081F0A000898
:10001000230A00088D070008770C00080000000084
:100020000000000000000000000000000D0B0008B0
:100030009307000800000000E90A0008F90B000817
:10004000E7010008E7010008E7010008E7010008F0
:10005000E7010008E701000895070008E70100082C
:10006000B5070008D5070008F50700089107000844
:10007000E7010008E7010008E7010008E7010008C0
:10008000E7010008E7010008E7010008E7010008B0
:10009000E7010008E7010008E7010008E7010008A0
:1000A000E7010008E7010008E7010008E701000890
:1000B000750C0008E7010008E7010008E7010008E7
:1000C000E7010008E7010008E7010008E701000870
:1000D000E7010008E7010008E7010008E701000860
:1000E000E7010008E7010008E7010008E701000850
:1000F000E7010008E7010008E7010008E701000840
:10010000E7010008E7010008E7010008E70100082F
:10011000E7010008E7010008E7010008E70100081F
:10012000E7010008E7010008E7010008E70100080F
:1001300000F002F800F03AF80AA090E8000C8244BF
:100140008344AAF10107DA4501D100F02FF8AFF29C
:10015000090EBAE80F0013F0010F18BFFB1A43F0A5
:1001600001031847D00B0000F00B0000103A24BF29
:1001700078C878C1FAD8520724BF30C830C144BF0C
:1001800004680C607047000000230024002500264E
:10019000103A28BF78C1FBD8520728BF30C148BFEA
:1001A0000B6070471FB51FBD10B510BD00F031F8D2
:1001B0001146FFF7F7FF00F0ACFD00F04FF803B475
:1001C000FFF7F2FF03BC00F057F800000948804732
:1001D00009480047FEE7FEE7FEE7FEE7FEE7FEE729
:1001E000FEE7FEE7FEE7FEE704480549054A064B41
:1001F00070470000150C000831010008B80000200D
:10020000B8060020B8020020B802002070477047EE
:100210007047754600F02CF8AE4605006946534617
:1002200020F00700854618B020B5FFF7DDFFBDE8D8
:1002300020404FF000064FF000074FF000084FF04D
:10024000000B21F00701AC46ACE8C009ACE8C009DE
:10025000ACE8C009ACE8C0098D46704710B504464B
:10026000AFF300802046BDE81040FFF7A8BF0000B4
:10027000004870475800002001491820ABBEFEE737
:1002800026000200704710B500F0A2F800F02EF82A
:1002900000F076F810BD000010B50D490968C8B22D
:1002A0000C4900F03DF80C49D1F80811C8B20B49CF
:1002B00000F036F80A490968C8B20A4900F030F877
:1002C0000549D1F81011C8B2074900F029F810BD4E
:1002D00000012142280000200000234234000020B9
:1002E0000C012342400000204C00002000B50121F9
:1002F000074800F063F80021064800F05FF800218D
:10030000054800F05BF80021044800F057F800BDF4
:100310002800002034000020400000204C00002075
:1003200070B505460C466078012808D12078A842AF
:1003300004D0A068804700206070A07070BDA078D5
:1003400018B90020E0706060F8E7E07838B900F094
:1003500089F860606068143060600120E07000F02F
:1003600081F86168884200D0E8E72078A84201D18E
:10037000012060700020A070E070606000BFDDE7C9
:1003800006480749886007480749886007480849C0
:100390008860084808498860704700007B0C0008A6
:1003A00028000020910C000834000020C30C000835
:1003B00040000020E50C00084C00002000220260F4
:1003C000426082600170014A82607047110D00082E
:1003D00010B50021084600F027FB024908700846C6
:1003E000007810BD1400002010B5082A00DB10BDF5
:1003F00010B90A4B1970FAE701F00101074B1B789D
:1004000001249440A343054C237023461B7801FA32
:1004100002F42343014C237000BFE8E714000020DE
:1004200010B503480178012000F0FEFA10BD00006D
:1004300014000020014600220948007A01238B4065
:1004400000EA030232B10648007A01238B40984348
:10045000034B18720AB1012070470020FCE700002E
:100460001C000020014800687047000018000020B0
:100470004748007800B97047002045490870084691
:100480004068401C4860084640681421B0FBF1F207
:1004900001FB120058B93E484068B0FBF1F030B1A2
:1004A0003B48007A20F00100401C39490872384866
:1004B00040682821B0FBF1F201FB120058B9344822
:1004C0004068B0FBF1F030B13148007A20F0020012
:1004D000801C2F4908722E4840686421B0FBF1F25D
:1004E00001FB120058B92A484068B0FBF1F030B166
:1004F0002748007A20F00400001D2549087224488E
:100500004068C821B0FBF1F201FB120058B9204845
:100510004068B0FBF1F030B11D48007A20F00800CF
:1005200008301B4908721A4840684FF4FA71B0FB52
:10053000F1F201FB120058B915484068B0FBF1F028
:1005400030B11348007A20F01000103010490872C2
:100550000F4840684FF47A71B0FBF1F201FB1200D2
:1005600058B90B484068B0FBF1F030B10848007A48
:1005700020F0200020300649087205484068B0F598
:100580007A7F02D901200249486000BF73E700006A
:100590001C00002010B500F005F800F0C7F800F0CE
:1005A0001DF810BD08B50121102000F09FFA684623
:1005B00000F02DFAFF20ADF8000010208DF80300A8
:1005C00002208DF802006946034800F093F9FF21EC
:1005D000014800F01AFA08BD001001401CB50121C5
:1005E000084600F083FA00F039F80021084600F0D0
:1005F00061F90120009000208DF8040008208DF89A
:10060000050001208DF80600684600F009F9022176
:10061000042000F04FF90420009000208DF8040021
:100620000C208DF8050001208DF80600684600F0CA
:10063000F7F80321042000F03DF9082000906846F7
:1006400000F0EEF80421084600F034F91020009084
:10065000684600F0E5F800F029F81CBD08B5012156
:10066000042000F043FA0121402000F03FFA6846E0
:1006700000F0CDF90120ADF8000028208DF803002E
:1006800002208DF802006946064800F033F91C206C
:10069000ADF8000048208DF803006946024800F0DC
:1006A00029F908BD000801400018014008B54FF4C1
:1006B000A06000F00FFA06208DF8000002208DF8EF
:1006C000010000208DF8020001208DF8030068462B
:1006D00000F0C8F908208DF8000002208DF8010014
:1006E00001208DF802008DF80300684600F0BAF989
:1006F00009208DF8000002208DF801008DF802001D
:1007000001208DF80300684600F0ACF90A208DF84E
:10071000000002208DF8010003208DF80200012066
:100720008DF80300684600F09DF908BD30B5144807
:1007300000684FF47A72B0FBF2F1B1F1807F00D320
:100740001DE021F07F40401E4FF0E0225061501725
:100750000F22002807DA13071D0E0A4B00F00F04C2
:10076000241F1D5503E013071C0E074B1C5400BF2C
:1007700000204FF0E02290610720106100BF30BDE3
:100780000000002018ED00E000E400E000BFFEE7FC
:100790007047704710B505480068012801D1044929
:1007A0008870012000F036F810BD000000012142E1
:1007B0002800002010B50548006810B90120044940
:1007C0008870042000F026F810BD000008012342C4
:1007D0003400002010B50548006810B90120044914
:1007E0008870082000F016F810BD00000C012342AC
:1007F0004000002010B50548006810B901200449E8
:100800008870102000F006F810BD0000100123428F
:100810004C000020014908607047000014040140AA
:10082000002123498279002A3AD00A4612680368D7
:100830009A430B461A600A1D126803689A430B1DFF
:100840001A60027911440A6803681A430A60184A58
:100850000832126803689A43154B08331A601A1D50
:10086000126803689A43124B0C331A604279102ABB
:100870000ED11A1F126803681A430D4B08331A6011
:100880001A1D126803681A43094B0C331A600DE0F5
:100890000749427911440A6803681A430A6005E06F
:1008A000027911440A6803689A430A60704700009D
:1008B0000004014030B500228B071C0F0F2303FA00
:1008C00004F20B4B8C1053F824309343084C8D10DA
:1008D00044F8253023468C1053F824308C07240F1D
:1008E00000FA04F42343024C8D1044F8253030BD47
:1008F000080001402DE9F0410246002500260020B5
:1009000000230024002791F803C00CF00F0591F894
:1009100003C00CF0100CBCF1000F03D091F802C022
:100920004CEA050591F800C0BCF1000F31D0146805
:1009300000202BE04FF0010C0CFA00F3B1F800C0DE
:100940000CEA03069E4220D183004FF00F0C0CFAF4
:1009500003F7BC4305FA03FC4CEA040491F803C016
:10096000BCF1280F06D14FF0010C0CFA00FCC2F8C4
:1009700014C00AE091F803C0BCF1480F05D14FF054
:10098000010C0CFA00FCC2F810C0401C0828D1D39E
:100990001460B1F800C0BCF1FF0F34DD54680020D2
:1009A0002EE000F1080C4FF0010808FA0CF3B1F842
:1009B00000C00CEA03069E4221D183004FF00F0CC9
:1009C0000CFA03F7BC4305FA03FC4CEA040491F863
:1009D00003C0BCF1280F05D100F1080C08FA0CF88F
:1009E000C2F8148091F803C0BCF1480F07D100F1A0
:1009F000080C4FF0010808FA0CF8C2F81080401CEF
:100A00000828CED35460BDE8F081016170474FF6ED
:100A1000FF710180022181700421C170704700BF05
:100A2000FEE700BFFEE7000010B50246002012B14D
:100A3000012A0FD103E0094BDB68D8B20BE0074B6A
:100A4000DB6823F0FF03054CE3602346DB680B43C0
:100A5000E36000E000BF00BF10BD000000100140D7
:100A60007047000070B5002100230F22C47804B342
:100A7000154C246804F4E064C4F5E064210AC1F173
:100A80000403CA40447804FA03F1847814402143F3
:100A900009010E4C0678A155047804F01F050124C5
:100AA000AC4005786D11AD0005F1E025C5F80041B9
:100AB00009E0047804F01F050124AC40044D0678D9
:100AC000761145F8264070BD0CED00E000E400E032
:100AD00080E100E002490143024A116070470000D2
:100AE0000000FA050CED00E07047000029B1064A4D
:100AF00092690243044B9A6104E0034A926982437B
:100B0000014B9A617047000000100240704710B519
:100B100000F002F810BD00000CB50020019000901C
:100B20003348006840F480303149086000BF3048E5
:100B3000006800F4003000900198401C019000987B
:100B400018B90198B0F5A06FF1D12948006800F4F8
:100B5000003010B10120009001E0002000900098CA
:100B6000012843D12348006840F010002149086063
:100B70000846006820F0030008600846006840F05E
:100B8000020008601A4840681949486008464068F1
:100B900048600846406840F4806048600846406805
:100BA00020F47C1048600846406840F4E810486033
:100BB0000846006840F08070086000BF0C4800687C
:100BC00000F000700028F9D00948406820F00300C8
:100BD000074948600846406840F00200486000BF8E
:100BE0000348406800F00C000828F9D10CBD000053
:100BF000001002400020024004480068401C0349E5
:100C000008600120024908707047000018000020A9
:100C10001C00002010B51348006840F00100114985
:100C2000086008464068104908400E494860084678
:100C300000680E4908400B4908600846006820F427
:100C4000802008600846406820F4FE0048604FF4A9
:100C50001F008860FFF75BFF4FF0006004490860E9
:100C600010BD0000001002400000FFF8FFFFF6FE7C
:100C700008ED00E0704700BFFEE710B54FF0E02040
:100C80008069C4B2002221461046FFF7ADFB10BDBB
:100C900070B5FFF79DFB0546082408E0601E0121A2
:100CA00001FA00F0284000B903E0601EC4B2002C35
:100CB000F4DC00BF601EC2B201210846FFF794FBBE
:100CC00070BD10B5FFF784FBFF2805D00022FF217F
:100CD0001046FFF789FB04E0002211461046FFF79B
:100CE00083FB10BD70B5FFF773FB0546002406E0DB
:100CF0000120A040284000B103E0601C44B2082C51
:100D0000F6DB00BFE2B200210120FFF76DFB70BDF2
:100D10007047FFF73FFCFFF7B6FA09E0FFF7A8FBC3
:100D2000FFF7BAFA0220FFF785FB08B1FFF778FB5F
:100D3000F4E70000540D0008000000201C00000033
:100D40006C010008700D00081C0000209C060000CB
:100D50008801000800A24A04000000000000000012
:100D6000010203040607080900000000000000005B
:0400000508000131BD
:00000001FF
