:020000040800F2
:1000000018050020450100087B0D0008D10C0008F0
:10001000D50C00087D090008A912000800000000A6
:10002000000000000000000000000000310F000888
:10003000A30B000800000000010E00081D100008BE
:100040005F0100085F0100085F0100085F01000810
:100050005F0100085F0100085F0100085F01000800
:100060005F0100085F010008A50B00088109000876
:100070005F0100085F010008850900085F010008B2
:100080005F0100085F0100085F0100085F010008D0
:100090005F0100085F0100085F0100085F010008C0
:1000A0005F0100085F0100085F0100085F010008B0
:1000B000891000085F0100085F0100085F01000867
:1000C0005F0100085F0100085F0100085F01000890
:1000D0005F0100088D1000085F0100085F01000843
:1000E0005F0100085F0100085F0100085F01000870
:1000F0005F0100085F0100085F0100085F01000860
:100100005F0100085F0100085F0100085F0100084F
:100110005F0100085F0100085F0100085F0100083F
:100120005F0100085F0100085F0100085F0100082F
:10013000DFF80CD000F048F80048004785160008AA
:10014000180500200648804706480047FEE7FEE7FE
:10015000FEE7FEE7FEE7FEE7FEE7FEE7FEE7FEE777
:100160002910000831010008D2B201E000F8012B8B
:10017000491EFBD270470022F6E710B513460A4627
:1001800004461946FFF7F0FF204610BD421C10F848
:10019000011B0029FBD1801A704730B50B46014680
:1001A00000202022012409E021FA02F59D4205D316
:1001B00003FA02F5491B04FA02F52844151EA2F1C0
:1001C0000102F1DC30BD0000064C074D06E0E0689E
:1001D00040F0010394E8070098471034AC42F6D38E
:1001E000FFF7AAFFB8160008D816000821B18268E8
:1001F00042F00102826003E0826822F00102826024
:10020000704721B1826842F48072826003E08268A4
:1002100022F480728260704730B5024600200023CD
:1002200050680F4C20400D790C6844EA05242043A7
:10023000506090680B4C2040D1E902542C434D791A
:1002400044EA450420439060D06A20F470000C7C9E
:10025000641EE4B2234340EA0350D06230BD000084
:10026000FFFEF0FFFDF7F1FFF0B504460D4600205C
:100270000021092D11DDE068A5F10A0606EB46070D
:10028000072606FA07F18843A5F10A0606EB46069B
:1002900003FA06F10843E0600CE0206905EB45072E
:1002A000072606FA07F1884305EB450603FA06F12F
:1002B00008432061072A0FDA606B561E06EB86079B
:1002C0001F2606FA07F18843561E06EB860605FA36
:1002D00006F10843606322E00D2A0FDA206BD61F77
:1002E00006EB86071F2606FA07F18843D61F06EBA2
:1002F000860605FA06F10843206310E0E06AA2F1E1
:100300000D0606EB86071F2606FA07F18843A2F1C1
:100310000D0606EB860605FA06F10843E062F0BD1D
:1003200021B1826842F4A002826003E0826822F474
:10033000A0028260704710B500F008F800F038F8AD
:1003400000F07AF800F050F910BD000010B500215F
:10035000084600F0D1FC024908700846007810BD3C
:100360002E00002010B5082A00DB10BD10B90A4B82
:100370001970FAE701F00101074B1B780124944042
:10038000A343054C237023461B7801FA02F4234350
:10039000014C237000BFE8E72E00002010B5034891
:1003A0000178012000F0A8FC10BD00002E00002004
:1003B00010B50121074800F079FF0021064800F040
:1003C00075FF0021054800F071FF0021044800F08E
:1003D0006DFF10BD40000020540000206800002088
:1003E0007C00002010B50D490968C8B20C4900F026
:1003F0009FFC0C49D1F80811C8B20B4900F098FCD9
:100400000A490968C8B20A4900F092FC0549D1F8C6
:100410001011C8B2074900F08BFC10BD0001214249
:100420004000002000002342540000200C01234221
:10043000680000207C0000200A480B4948600B48F7
:1004400088600B480B4948600B4888600B480C4992
:1004500048600C4888600C480C4948600C4888602B
:1004600070470000CD12000840000020CF120008A5
:10047000E512000854000020E712000819130008D4
:10048000680000201B1300083D1300087C000020BA
:100490003F130008014600220948007A01238B40DF
:1004A00000EA030232B10648007A01238B409843E8
:1004B000034B18720AB1012070470020FCE70000CE
:1004C000340000204748007800B9704700204549B3
:1004D000087008464068401C48600846406814217F
:1004E000B0FBF1F201FB120058B93E484068B0FB86
:1004F000F1F030B13B48007A20F00100401C39494E
:100500000872384840682821B0FBF1F201FB120064
:1005100058B934484068B0FBF1F030B13148007A46
:1005200020F00200801C2F4908722E484068642188
:10053000B0FBF1F201FB120058B92A484068B0FB49
:10054000F1F030B12748007A20F00400001D254961
:10055000087224484068C821B0FBF1F201FB120088
:1005600058B920484068B0FBF1F030B11D48007A1E
:1005700020F0080008301B4908721A4840684FF400
:10058000FA71B0FBF1F201FB120058B9154840684E
:10059000B0FBF1F030B11348007A20F010001030B9
:1005A000104908720F4840684FF47A71B0FBF1F2BD
:1005B00001FB120058B90B484068B0FBF1F030B1B4
:1005C0000848007A20F020002030064908720548CB
:1005D0004068B0F57A7F02D901200249486000BF27
:1005E00073E700003400002010B582210348FFF7B4
:1005F000C2FD03A000F050FF10BD000090000020DD
:1006000048656C6C6F20576F726C642100000000AD
:1006100010B5002400F060FB044600BF2C48407871
:100620000128FBD001202A494870224629A12848E8
:10063000801C00F041FF2648801CFFF7A7FD2449DD
:10064000087008460178801C00F05EF900202049FF
:10065000087000F046FB044600BF1D4840780128A2
:10066000FBD001201A49487022461DA11848801C61
:1006700000F022FF1648801CFFF788FD144908701F
:1006800008460178801C00F03FF9002010490870EE
:1006900000F02CFB044600BF0D4840780128FBD039
:1006A00001200B494870224610A10948801C00F027
:1006B00003FF0748801CFFF769FD054908700846DD
:1006C0000178801C00F020F900200149087010BD5D
:1006D000900000202020416463303A20256400000F
:1006E0002020416463313A202564000020204164C9
:1006F00063323A2025640A0000B585B00121480222
:1007000000F09CFB4FF4404000F07CFB00F05EFEEC
:1007100000F02CFE0020009001208DF804008DF8E0
:1007200005004FF4602002900020039003208DF814
:10073000100069461148FFF76FFD052301220821CB
:100740000E48FFF791FD0523022209210B48FFF710
:100750008BFD0523032201210848FFF785FD0121B8
:100760000648FFF74EFD01210448FFF73FFD012138
:100770000248FFF7D5FD05B000BD00000024014090
:100780000146032900DB0021014830F811007047C1
:100790002800002010B500F009F800F04BF800F038
:1007A00021F800F077F8FFF7A7FF10BD08B5012189
:1007B000102000F043FB684600F082FAFF20ADF8FD
:1007C000000010208DF8030002208DF80200694619
:1007D000034800F0E8F9FF21014800F06FFA08BD76
:1007E0000010014008B50121042000F027FB012181
:1007F000402000F023FB684600F062FA0120ADF8CB
:10080000000028208DF8030002208DF802006946C0
:10081000064800F0C8F91C20ADF8000048208DF80B
:1008200003006946024800F0BEF908BD0008014017
:100830000018014030B5144800684FF47A72B0FBDC
:10084000F2F1B1F1807F00D31DE021F07F40401E26
:100850004FF0E022506150170F22002807DA1307EB
:100860001D0E0A4B00F00F04241F1D5503E0130753
:100870001C0E074B1C5400BF00204FF0E02290617B
:100880000720106100BF30BD0000002018ED00E01F
:1008900000E400E01FB5012144F2010000F0CEFAAF
:1008A00000F0C4FD4FF4E13000900020ADF80400EA
:1008B000ADF80600ADF80800ADF80C000C20ADF85E
:1008C0000A0069460F4800F07FFC012240F22551E2
:1008D0000C4800F054FC01210A4800F004FC00F030
:1008E000C7FD40F22551074800F0EEFB20210548E6
:1008F00000F0D6FC00BF4021024800F009FC0128AE
:10090000F9D11FBD0038014030B58BB005460C460B
:100910000121084600F082FA00F074FD154800F04D
:100920005DF8154800900195102002900394002076
:1009300004908020059000200690079008904FF4C6
:100940008050099000200A9069460A4800F00BF98F
:100950000121084800F036F801220221054800F084
:10096000F9F8012280210448001F00F0C8FB0BB0F9
:1009700030BD0000440002400438014000BFFEE7E3
:100980007047000010B54FF4005000F0CDF801287A
:1009900006D10020034948704FF4E04000F004F80D
:1009A00010BD00009000002000F0805111B10349FB
:1009B000086001E0024948607047000004040240FA
:1009C0000000024021B1026842F00102026004E02E
:1009D00002684FF6FE731A400260704701684FF6D6
:1009E000FE72114001600021016041608160C160C0
:1009F0004B49884208D14A490839496841F00F01FA
:100A0000474A083A51608AE045491431884208D182
:100A100043490839496841F0F001414A083A5160B8
:100A20007DE03F492831884208D13D49083949686D
:100A300041F470613A4A083A516070E038493C31FB
:100A4000884208D136490839496841F47041344A2E
:100A5000083A516063E032495031884208D1304948
:100A60000839496841F470212D4A083A516056E02E
:100A70002B496431884208D129490839496841F431
:100A80007001274A083A516049E025497831884287
:100A900008D123490839496841F07061204A083A71
:100AA00051603CE01F49884206D1011F096841F0AE
:100AB0000F01021F116032E01A491431884208D137
:100AC0001849091F096841F0F001164A121F116008
:100AD00025E014492831884208D11249091F0968C4
:100AE00041F470610F4A121F116018E00D493C314A
:100AF000884208D10B49091F096841F47041094A2D
:100B0000121F11600BE007495031884207D1054997
:100B1000091F096841F47021024A121F11607047D1
:100B2000080002400804024001460020002201F0B3
:100B3000805313B1054B1A6801E0054B1A6802EAAD
:100B400001030BB1012000E00020704700040240C7
:100B5000000002401AB103680B43036002E003681F
:100B60008B430360704710B50022026847F6F073AC
:100B70009A430C6A8B6823430C6923434C692343D3
:100B80008C692343CC6923434C6A23438C6A2343F7
:100B90001A430260CB6843600B6883604B68C36094
:100BA00010BD704770472DE9F04102460025002630
:100BB000002000230024002791F803C00CF00F054B
:100BC00091F803C00CF0100CBCF1000F03D091F8A9
:100BD00002C04CEA050591F800C0BCF1000F31D00D
:100BE000146800202BE04FF0010C0CFA00F3B1F870
:100BF00000C00CEA03069E4220D183004FF00F0C88
:100C00000CFA03F7BC4305FA03FC4CEA040491F820
:100C100003C0BCF1280F06D14FF0010C0CFA00FC08
:100C2000C2F814C00AE091F803C0BCF1480F05D126
:100C30004FF0010C0CFA00FCC2F810C0401C082850
:100C4000D1D31460B1F800C0BCF1FF0F34DD54689B
:100C500000202EE000F1080C4FF0010808FA0CF318
:100C6000B1F800C00CEA03069E4221D183004FF088
:100C70000F0C0CFA03F7BC4305FA03FC4CEA04041E
:100C800091F803C0BCF1280F05D100F1080C08FA57
:100C90000CF8C2F8148091F803C0BCF1480F07D1DA
:100CA00000F1080C4FF0010808FA0CF8C2F81080A7
:100CB000401C0828CED35460BDE8F0810161704724
:100CC0004FF6FF710180022181700421C1707047CD
:100CD00000BFFEE700BFFEE710B50020FFF750FDA4
:100CE00010BD10B50120FFF74BFD10BD10B502205F
:100CF000FFF746FD10BD000010B50246002012B1FE
:100D0000012A0FD103E0094BDB68D8B20BE0074B97
:100D1000DB6823F0FF03054CE3602346DB680B43ED
:100D2000E36000E000BF00BF10BD00000010014004
:100D300070B505460C466078A84212D10120E070DB
:100D40002078401C20702078192807DDA07828B969
:100D50000020E0700120A07060688047E068804754
:100D60000AE0E078012801D1A06880472069804727
:100D700000202070E070A07070BD704770B5002139
:100D800000230F22C47804B3154C246804F4E064F3
:100D9000C4F5E064210AC1F10403CA40447804FAAE
:100DA00003F184781440214309010E4C0678A155C3
:100DB000047804F01F050124AC4005786D11AD00E6
:100DC00005F1E025C5F8004109E0047804F01F05AD
:100DD0000124AC40044D0678761145F8264070BDDC
:100DE0000CED00E000E400E080E100E00249014396
:100DF000024A1160704700000000FA050CED00E0A7
:100E00007047000001460020034A506820F440402B
:100E100008435060704700000010024029B1064AA4
:100E200052690243044B5A6104E0034A5269824307
:100E3000014B5A61704700000010024029B1064A78
:100E400092690243044B9A6104E0034A9269824327
:100E5000014B9A61704700000010024030B500213C
:100E60000022002400232D4D6D6805F00C0121B1F6
:100E7000042905D0082923D105E0294D056022E089
:100E8000274D05601FE0254D6D6805F47012234D58
:100E90006D6805F48034022505EB92421CB9214DA2
:100EA000554305600BE01D4D6D6805F400351DB11F
:100EB0001C4D5543056002E0194D5543056002E0A5
:100EC000174D056000BF00BF144D6D6805F0F001BF
:100ED0000909154D6B5C0568DD4045600F4D6D6877
:100EE00005F4E061090A104D6B5C4568DD408560E2
:100EF0000A4D6D6805F46051C90A0B4D6B5C45687D
:100F0000DD40C560054D6D6805F44041890B074D16
:100F10006B5CC568B5FBF3F5056130BD00100240A0
:100F200000127A0000093D00140000202400002077
:100F3000704710B500F002F810BD00000CB500209D
:100F4000019000903348006840F4803031490860D7
:100F500000BF3048006800F4003000900198401C49
:100F60000190009818B90198B0F5A06FF1D1294807
:100F7000006800F4003010B10120009001E0002072
:100F800000900098012843D12348006840F01000E9
:100F9000214908600846006820F003000860084600
:100FA000006840F0020008601A484068194948602B
:100FB0000846406848600846406840F480604860E1
:100FC0000846406820F47C1048600846406840F4B9
:100FD000E81048600846006840F08070086000BF74
:100FE0000C48006800F000700028F9D009484068FB
:100FF00020F00300074948600846406840F00200BE
:10100000486000BF0348406800F00C000828F9D190
:101010000CBD0000001002400020024001200149E8
:10102000087070473400002010B51348006840F085
:1010300001001149086008464068104908400E49FF
:101040004860084600680E4908400B490860084699
:10105000006820F4802008600846406820F4FE0004
:1010600048604FF41F008860FFF763FF4FF0006097
:101070000449086010BD0000001002400000FFF8A5
:10108000FFFFF6FE08ED00E07047000010B540F2EB
:1010900025510B4800F049F858B10948001D008857
:1010A000C1B2084802780078401C064B1870981CA2
:1010B000815440F22551024800F006F810BD0000AE
:1010C000003801409000002010B50022002340F6B7
:1010D0006A14A14200D100BF0A1201249440A3B2B5
:1010E000DC43048010BD21B1828942F40052828128
:1010F00004E082894DF6FF731A40828170471AB16D
:10110000838A0B43838202E0838A8B438382704706
:1011100002460020B1F5007F00D100BF13880B40CC
:101120000BB1012000E00020704770B5024600249A
:1011300000230025002040F66A16B14200D100BF0E
:10114000C1F3421501F01F03012606FA03F3012D36
:1011500002D19689334006E0022D02D1168A33402F
:1011600001E0968A33400C12012606FA04F4168830
:10117000344013B10CB1012000E0002070BDF0B587
:101180000346002400260025002040F66A17B942D5
:1011900000D100BF1846C1F3421401F01F06012719
:1011A00007FA06F5012C01D10C3004E0022C01D124
:1011B000103000E014301AB107682F43076002E0D6
:1011C0000768AF430760F0BD2DE9F04786B00546DC
:1011D0000E460024A24600BFA1460027B08900B1F8
:1011E00000BF2F462C8A4CF6FF700440F088044361
:1011F0002C82AC894EF6F3100440B0883189084344
:10120000718908430443AC81AC8A4FF6FF40044027
:10121000B0890443AC8201A8FFF720FE1F48874233
:1012200002D1DDF810A001E0DDF80CA0A88900F4DF
:10123000004040B10AEBCA0000EB0A1031684900D7
:10124000B0FBF1F807E00AEBCA0000EB0A103168C6
:101250008900B0FBF1F86420B8FBF0F0040120092C
:10126000642101FB1089A88900F4004040B13220BC
:1012700000EBC900B0FBF1F000F00700044308E008
:10128000322000EB09106421B0FBF1F000F00F00F8
:1012900004432C8106B0BDE8F0870000003801400F
:1012A000C1F308028280704700BFFEE770B50446B4
:1012B0000D4614212046FEF75EFF03486060A060E3
:1012C000E0602061657070BD6B130008704710B559
:1012D0004FF0E0208069C4B2002221461046FFF79B
:1012E00041F810BD704770B5FFF730F80546082487
:1012F00008E0601E012101FA00F0284000B903E077
:10130000601EC4B2002CF4DC00BF601EC2B201211A
:101310000846FFF727F870BD704710B5FFF716F8BD
:10132000FF2805D00022FF211046FFF71BF804E03C
:10133000002211461046FFF715F810BD704770B532
:10134000FFF704F80546002406E00120A0402840ED
:1013500000B103E0601C44B2082CF6DB00BFE2B22F
:1013600000210120FEF7FEFF70BD704700B58BB075
:1013700001210846FFF752FD1148FFF72FFB1148E6
:10138000009011480190002002900320039000205B
:101390000490802005904000069080000790202057
:1013A00008900002099000200A9069460448FFF75F
:1013B000DAFB01210248FFF705FB0BB000BD00007E
:1013C000080002404C2401402800002008B50121FB
:1013D0000C20FFF733FD0320ADF8000000208DF84E
:1013E000030069460548FFF7DEFB0220ADF8000068
:1013F00069460348FFF7D7FB08BD0000000C014019
:101400000008014008B54FF4C060FFF7EFFC0E2064
:101410008DF8000001208DF801008DF802008DF894
:1014200003006846FFF7AAFC08BD000008B50121CB
:101430000420FFF703FD4FF40070ADF80000182002
:101440008DF8030003208DF8020069460748FFF776
:10145000AAFB4FF48060ADF8000004208DF8030073
:1014600069460248FFF79FFB08BD000000080140E5
:1014700008B54FF4C060FFF7B9FC25208DF80000D7
:1014800000208DF801008DF8020001208DF8030086
:101490006846FFF773FC08BD0FB4054B10B503A9F0
:1014A000044A029800F02CF810BC5DF814FB000010
:1014B00061160008300000200FB4084B10B504A9D5
:1014C00002AA039800F01CF8044602A9002000F0CC
:1014D000C1F8204610BC5DF814FB0000551600084A
:1014E00002E008C8121F08C1002AFAD170477047ED
:1014F000002001E001C1121F002AFBD1704700004B
:101500002DE9FF4F89B09B460446002506E02528BB
:101510000BD05A460B999047641C6D1C207800280C
:10152000F5D10DB02846BDE8F08F0027B84601225E
:10153000474900E0074314F8013F203B02FA03F05B
:101540000842F7D120782E2819D114F8010F47F05E
:1015500004072A280ED06FF02F022078A0F1300166
:1015600009290CD808EB880102EB410100EB0108C6
:10157000641CF2E70A98641C50F8048B0A902078E7
:101580000028CED0642808D0692806D075281ED03F
:101590005A460B9990476D1C58E00A994FF00A097A
:1015A00001C90A91002802DA40422D2102E03905E2
:1015B00004D52B218DF82010012103E0F90704D078
:1015C0002021F7E78A4608AE0DE00021FAE70A99E4
:1015D0004FF00A0901C90A91F7E74946FEF7DDFD18
:1015E000303106F8011D0028F7D1ADEB060000F1FF
:1015F0002009780701D44FF00108C84502DDA8EBA7
:10160000090000E000208046002706E008A85A46AE
:10161000C05D0B9990476D1C7F1C5745F6DB04E0BD
:1016200030205A460B9990476D1CB8F10001A8F183
:101630000108F5DC05E016F8010B5A460B999047B6
:101640006D1CB9F10001A9F10109F4DC641C65E726
:10165000092801000A68531C0B60107070470000D5
:1016600070B504460D46E1B20548FFF719FE00BF0C
:1016700040210348FFF74CFD0128F9D1204670BDF9
:1016800000380140FFF786F8FEF755FE13E0FEF73D
:1016900019FF0120FEF7FEFE08B1FEF7A3FE0220AF
:1016A000FEF7F8FE08B1FEF779FE0520FEF7F2FE20
:1016B00008B1FEF7ADFFEAE7D816000800000020E9
:1016C00034000000E01400080C170008340000206B
:1016D000E4040000F014000800A24A040000000026
:1016E00000000000010203040607080900000000D2
:1016F00001020304010203040607080902040608A4
:0C170000000000000000000000000000DD
:0400000508000131BD
:00000001FF
