:020000040800F2
:1000000080060020CD01000815060008D50500086F
:10001000D9050008A10400089307000800000000AB
:100020000000000000000000000000003906000889
:10003000A7040008000000001706000825070008B4
:10004000E7010008E7010008E7010008E7010008F0
:10005000E7010008E7010008E7010008E7010008E0
:10006000E7010008E7010008A9040008A50400084A
:10007000E7010008E7010008E7010008E7010008C0
:10008000E7010008E7010008E7010008E7010008B0
:10009000E7010008E7010008E7010008E7010008A0
:1000A000E7010008E7010008E7010008E701000890
:1000B00091070008E7010008E7010008E7010008D0
:1000C000E7010008E7010008E7010008E701000870
:1000D000E7010008E7010008E7010008E701000860
:1000E000E7010008E7010008E7010008E701000850
:1000F000E7010008E7010008E7010008E701000840
:10010000E7010008E7010008E7010008E70100082F
:10011000E7010008E7010008E7010008E70100081F
:10012000E7010008E7010008E7010008E70100080F
:1001300000F002F800F03AF80AA090E8000C8244BF
:100140008344AAF10107DA4501D100F02FF8AFF29C
:10015000090EBAE80F0013F0010F18BFFB1A43F0A5
:10016000010318474C0600006C060000103A24BF3B
:1001700078C878C1FAD8520724BF30C830C144BF0C
:1001800004680C607047000000230024002500264E
:10019000103A28BF78C1FBD8520728BF30C148BFEA
:1001A0000B6070471FB51FBD10B510BD00F031F8D2
:1001B0001146FFF7F7FF00F0EEFA00F04FF803B436
:1001C000FFF7F2FF03BC00F057F800000948804732
:1001D00009480047FEE7FEE7FEE7FEE7FEE7FEE729
:1001E000FEE7FEE7FEE7FEE704480549054A064B41
:1001F000704700003107000831010008800000202E
:100200008006002080020020800200207047704796
:100210007047754600F02CF8AE4605006946534617
:1002200020F00700854618B020B5FFF7DDFFBDE8D8
:1002300020404FF000064FF000074FF000084FF04D
:10024000000B21F00701AC46ACE8C009ACE8C009DE
:10025000ACE8C009ACE8C0098D46704710B504464B
:10026000AFF300802046BDE81040FFF7A8BF0000B4
:10027000004870472000002001491820ABBEFEE76F
:1002800026000200704710B500240021084600F047
:10029000A5F904460CB9FE2401E06006040E2146CF
:1002A000012000F09BF910BD014600220948007AA8
:1002B00001238B4000EA030232B10648007A012391
:1002C0008B409843034B18720AB1012070470020FD
:1002D000FCE70000140000204748007800B9704790
:1002E00000204549087008464068401C48600846A0
:1002F00040681421B0FBF1F201FB120058B93E48EE
:100300004068B0FBF1F030B13B48007A20F00100CA
:10031000401C39490872384840682821B0FBF1F286
:1003200001FB120058B934484068B0FBF1F030B11D
:100330003148007A20F00200801C2F4908722E48B4
:1003400040686421B0FBF1F201FB120058B92A4861
:100350004068B0FBF1F030B12748007A20F004008B
:10036000001D2549087224484068C821B0FBF1F2FD
:1003700001FB120058B920484068B0FBF1F030B1E1
:100380001D48007A20F0080008301B4908721A48FE
:1003900040684FF4FA71B0FBF1F201FB120058B95A
:1003A00015484068B0FBF1F030B11348007A20F0F6
:1003B00010001030104908720F4840684FF47A71ED
:1003C000B0FBF1F201FB120058B90B484068B0FBDA
:1003D000F1F030B10848007A20F0200020300649C2
:1003E000087205484068B0F57A7F02D901200249B9
:1003F000486000BF73E700001400002010B500F053
:1004000003F800F01DF810BD08B50121102000F020
:1004100003F9684600F0D6F8FF20ADF80000102080
:100420008DF8030002208DF802006946034800F0B1
:100430003CF8FF21014800F0C3F808BD001001405E
:1004400030B5144800684FF47A72B0FBF2F1B1F1A4
:10045000807F00D31DE021F07F40401E4FF0E0225E
:10046000506150170F22002807DA13071D0E0A4BA0
:1004700000F00F04241F1D5503E013071C0E074B4B
:100480001C5400BF00204FF0E02290610720106153
:1004900000BF30BD0000002018ED00E000E400E0E7
:1004A00000BFFEE77047704770472DE9F0410246F4
:1004B00000250026002000230024002791F803C017
:1004C0000CF00F0591F803C00CF0100CBCF1000FFC
:1004D00003D091F802C04CEA050591F800C0BCF1C8
:1004E000000F31D0146800202BE04FF0010C0CFA03
:1004F00000F3B1F800C00CEA03069E4220D183004D
:100500004FF00F0C0CFA03F7BC4305FA03FC4CEA5E
:10051000040491F803C0BCF1280F06D14FF0010C80
:100520000CFA00FCC2F814C00AE091F803C0BCF158
:10053000480F05D14FF0010C0CFA00FCC2F810C0B6
:10054000401C0828D1D31460B1F800C0BCF1FF0FE3
:1005500034DD546800202EE000F1080C4FF0010853
:1005600008FA0CF3B1F800C00CEA03069E4221D150
:1005700083004FF00F0C0CFA03F7BC4305FA03FCA1
:100580004CEA040491F803C0BCF1280F05D100F136
:10059000080C08FA0CF8C2F8148091F803C0BCF1FA
:1005A000480F07D100F1080C4FF0010808FA0CF8C9
:1005B000C2F81080401C0828CED35460BDE8F081FA
:1005C000016170474FF6FF710180022181700421A3
:1005D000C170704700BFFEE700BFFEE710B50246DE
:1005E000002012B1012A0FD103E0094BDB68D8B219
:1005F0000BE0074BDB6823F0FF03054CE360234669
:10060000DB680B43E36000E000BF00BF10BD0000EB
:10061000001001407047704729B1064A92690243B1
:10062000044B9A6104E0034A92698243014B9A6148
:100630007047000000100240704710B500F002F84B
:1006400010BD00000CB500200190009033480068F8
:1006500040F480303149086000BF3048006800F441
:10066000003000900198401C0190009818B9019842
:10067000B0F5A06FF1D12948006800F4003010B146
:100680000120009001E0002000900098012843D153
:100690002348006840F010002149086008460068BF
:1006A00020F0030008600846006840F0020008607F
:1006B0001A4840681949486008464068486008463A
:1006C000406840F4806048600846406820F47C1030
:1006D00048600846406840F4E810486008460068F2
:1006E00040F08070086000BF0C48006800F00070A7
:1006F0000028F9D00948406820F003000749486005
:100700000846406840F00200486000BF0348406867
:1007100000F00C000828F9D10CBD000000100240C8
:100720000020024001200149087070471400002099
:1007300010B51348006840F00100114908600846F0
:100740004068104908400E494860084600680E4954
:1007500008400B4908600846006820F480200860C3
:100760000846406820F4FE0048604FF41F0088608F
:10077000FFF763FF4FF000600449086010BD000000
:10078000001002400000FFF8FFFFF6FE08ED00E059
:10079000704700BFFEE7FFF731FE07E0FFF79CFD63
:1007A0000220FFF781FD08B1FFF76DFDF6E70000BD
:1007B000D007000800000020140000006C010008B1
:1007C000E4070008140000206C06000088010008FF
:1007D00000A24A040000000000000000010203041F
:0407E00006070809F7
:0400000508000131BD
:00000001FF
