:020000040800F2
:1000000078050020450100080112000831100008A1
:1000100035100008C10B000831170008000000006F
:10002000000000000000000000000000B9130008FC
:10003000E70D00080000000089120008A514000860
:100040005F0100085F0100085F0100085F01000810
:100050005F0100085F0100085F0100085F01000800
:100060005F0100085F010008E90D0008C50B0008EA
:100070005F0100085F010008C90B00085F0100086C
:100080005F0100085F0100085F0100085F010008D0
:100090005F0100085F0100085F0100085F010008C0
:1000A0005F0100085F0100085F0100085F010008B0
:1000B000111500085F0100085F0100085F010008DA
:1000C0005F0100085F0100085F0100085F01000890
:1000D0005F010008151500085F0100085F010008B6
:1000E0005F0100085F0100085F0100085F01000870
:1000F0005F0100085F0100085F0100085F01000860
:100100005F0100085F0100085F0100085F0100084F
:100110005F0100085F0100085F0100085F0100083F
:100120005F0100085F0100085F0100085F0100082F
:10013000DFF80CD000F048F800480047111C000818
:10014000780500200648804706480047FEE7FEE79E
:10015000FEE7FEE7FEE7FEE7FEE7FEE7FEE7FEE777
:10016000B114000831010008D2B201E000F8012BFF
:10017000491EFBD270470022F6E710B513460A4627
:1001800004461946FFF7F0FF204610BD421C10F848
:10019000011B0029FBD1801A704730B50B46014680
:1001A00000202022012409E021FA02F59D4205D316
:1001B00003FA02F5491B04FA02F52844151EA2F1C0
:1001C0000102F1DC30BD0000064C074D06E0E0689E
:1001D00040F0010394E8070098471034AC42F6D38E
:1001E000FFF7AAFF342200085422000821B18268D8
:1001F00042F00102826003E0826822F00102826024
:10020000704721B1826842F48072826003E08268A4
:1002100022F480728260704730B5024600200023CD
:1002200050680F4C20400D790C6844EA05242043A7
:10023000506090680B4C2040D1E902542C434D791A
:1002400044EA450420439060D06A20F470000C7C9E
:10025000641EE4B2234340EA0350D06230BD000084
:10026000FFFEF0FFFDF7F1FFF0B504460D4600205C
:100270000021092D11DDE068A5F10A0606EB46070D
:10028000072606FA07F18843A5F10A0606EB46069B
:1002900003FA06F10843E0600CE0206905EB45072E
:1002A000072606FA07F1884305EB450603FA06F12F
:1002B00008432061072A0FDA606B561E06EB86079B
:1002C0001F2606FA07F18843561E06EB860605FA36
:1002D00006F10843606322E00D2A0FDA206BD61F77
:1002E00006EB86071F2606FA07F18843D61F06EBA2
:1002F000860605FA06F10843206310E0E06AA2F1E1
:100300000D0606EB86071F2606FA07F18843A2F1C1
:100310000D0606EB860605FA06F10843E062F0BD1D
:1003200021B1826842F4A002826003E0826822F474
:10033000A0028260704710B500F00CF800F03CF8A5
:1003400000F07EF800F0A8F900F0A8F800F0C4F87A
:1003500010BD000010B50021084600F07DFE0249E6
:1003600008700846007810BD2E00002010B5082A3D
:1003700000DB10BD10B90A4B1970FAE701F001015A
:10038000074B1B7801249440A343054C237023465C
:100390001B7801FA02F42343014C237000BFE8E705
:1003A0002E00002010B503480178012000F054FE13
:1003B00010BD00002E00002010B50121074801F0FB
:1003C000B9F90021064801F0B5F90021054801F00E
:1003D000B1F90021044801F0ADF910BD4000002042
:1003E00054000020680000207C00002010B50D495A
:1003F0000968C8B20C4900F04BFE0C49D1F808114D
:10040000C8B20B4900F044FE0A490968C8B20A495B
:1004100000F03EFE0549D1F81011C8B2074900F0BE
:1004200037FE10BD000121424000002000002342A1
:10043000540000200C012342680000207C000020B2
:100440000A480B4948600B4888600B480B494860D4
:100450000B4888600B480C4948600C4888600C4881
:100460000C4948600C488860704700005517000828
:1004700040000020571700086D17000854000020A6
:100480006F170008A117000868000020A3170008D4
:10049000C51700087C000020C717000808B5002019
:1004A0004FF4F0734FF4A0720146009000F016FE76
:1004B000FF2014231A0100210090084600F00EFED0
:1004C0004FF47F4014231A014FF4E671009000208E
:1004D00000F004FE08BD00001CB513A1164801F091
:1004E000B1FA1548FFF752FE84B200204FF6FF71B3
:1004F0002346114ACDE9001014210A2000F03EFEE7
:100500000EA10D4801F09EFA0B48FFF73FFE84B2A2
:1005100000204FF6FF712346074ACDE9001028213D
:100520000A2000F02BFE1CBD53797374656D2053B7
:10053000746172742E000000120100204C434420AC
:100540004F4B2100014600220948007A01238B40CD
:1005500000EA030232B10648007A01238B40984337
:10056000034B18720AB1012070470020FCE700001D
:10057000340000204748007800B970470020454902
:10058000087008464068401C4860084640681421CE
:10059000B0FBF1F201FB120058B93E484068B0FBD5
:1005A000F1F030B13B48007A20F00100401C39499D
:1005B0000872384840682821B0FBF1F201FB1200B4
:1005C00058B934484068B0FBF1F030B13148007A96
:1005D00020F00200801C2F4908722E4840686421D8
:1005E000B0FBF1F201FB120058B92A484068B0FB99
:1005F000F1F030B12748007A20F00400001D2549B1
:10060000087224484068C821B0FBF1F201FB1200D7
:1006100058B920484068B0FBF1F030B11D48007A6D
:1006200020F0080008301B4908721A4840684FF44F
:10063000FA71B0FBF1F201FB120058B9154840689D
:10064000B0FBF1F030B11348007A20F01000103008
:10065000104908720F4840684FF47A71B0FBF1F20C
:1006600001FB120058B90B484068B0FBF1F030B103
:100670000848007A20F0200020300649087205481A
:100680004068B0F57A7F02D901200249486000BF76
:1006900073E700003400002010B582210348FFF703
:1006A0006AFD03A001F0BEF910BD0000900000201B
:1006B00048656C6C6F20576F726C642100000000FD
:1006C00010B5002400F0B8FC044600BF2C48407868
:1006D0000128FBD001202A494870224629A1284838
:1006E000801C01F0AFF92648801CFFF74FFD24491C
:1006F000087008460178801C00F028FA0020204984
:10070000087000F09EFC044600BF1D484078012898
:10071000FBD001201A49487022461DA11848801CB0
:1007200001F090F91648801CFFF730FD144908705D
:1007300008460178801C00F009FA00201049087072
:1007400000F084FC044600BF0D4840780128FBD02F
:1007500001200B494870224610A10948801C01F075
:1007600071F90748801CFFF711FD0549087008461C
:100770000178801C00F0EAF900200149087010BDE2
:10078000900000202020416463303A20256400005E
:100790002020416463313A20256400002020416418
:1007A00063323A2025640A0000B585B00121480271
:1007B00000F088FD4FF4404000F068FD01F04AF879
:1007C00001F018F80020009001208DF804008DF849
:1007D00005004FF4602002900020039003208DF864
:1007E000100069461148FFF717FD05230122082173
:1007F0000E48FFF739FD0523022209210B48FFF7B8
:1008000033FD0523032201210848FFF72DFD0121B7
:100810000648FFF7F6FC01210448FFF7E7FC012139
:100820000248FFF77DFD05B000BD00000024014037
:100830000146032900DB0021014830F81100704710
:100840002800002010B500F00BF800F015F900F0BA
:1008500023F800F041F9FFF7A7FF00F045F810BDBD
:1008600008B50121102000F02DFD684600F0D8FBEE
:10087000FF20ADF8000010208DF8030002208DF855
:1008800002006946034800F03EFBFF21014800F0EA
:10089000C5FB08BD0010014008B50121042000F08F
:1008A00011FD0121402000F00DFD684600F0B8FB6D
:1008B0000120ADF8000028208DF8030002208DF8FB
:1008C00002006946064800F01EFB1C20ADF800003F
:1008D00048208DF803006946024800F014FB08BD6B
:1008E000000801400018014010B501F005F800F0C3
:1008F000CDFFE92000F0B4F8202000F0B7F8112077
:1009000000F0AEF84FF4FA7401E0601E84B2002CDF
:10091000FBDC3A2000F0A4F8552000F0A7F8D12025
:1009200000F09EF8002000F0A1F8652000F09EF88D
:100930001F2000F09BF8D02000F092F8072000F074
:1009400095F8072000F092F8802000F08FF836200C
:1009500000F086F8482000F089F8C12000F080F807
:10096000102000F083F8102000F080F8022000F042
:100970007DF8022000F07AF8C02000F071F8002025
:1009800000F074F8352000F071F8002000F06EF8E7
:10099000002000F06BF8012000F068F8022000F061
:1009A00065F8C42000F05CF8032000F05FF8C52073
:1009B00000F056F8012000F059F8D22000F050F86D
:1009C000012000F053F8222000F050F8E72000F05A
:1009D00047F8382000F04AF8F32000F041F80820EA
:1009E00000F044F8122000F041F8122000F03EF828
:1009F000082000F03BF8C82000F032F8012000F099
:100A000035F8522000F032F8372000F02FF810208F
:100A100000F02CF80D2000F029F8012000F026F855
:100A2000042000F023F8512000F020F8772000F097
:100A30001DF8012000F01AF8012000F017F80D2031
:100A400000F014F8082000F011F8802000F00EF8F3
:100A5000002000F00BF8292000F002F810BD000083
:100A60000149088070470000FE07006C01490880BA
:100A7000704700000008006C30B5144800684FF45F
:100A80007A72B0FBF2F1B1F1807F00D31DE021F06A
:100A90007F40401E4FF0E022506150170F22002887
:100AA00007DA13071D0E0A4B00F00F04241F1D5513
:100AB00003E013071C0E074B1C5400BF00204FF02F
:100AC000E02290610720106100BF30BD00000020CF
:100AD00018ED00E000E400E01FB5012144F2010040
:100AE00000F0F0FB00F068FF4FF4E13000900020D0
:100AF000ADF80400ADF80600ADF80800ADF80C0044
:100B00000C20ADF80A0069460F4800F0A1FD012253
:100B100040F225510C4800F076FD01210A4800F012
:100B200026FD00F06BFF40F22551074800F010FD54
:100B30002021054800F0F8FD00BF4021024800F0E8
:100B40002BFD0128F9D11FBD0038014030B58BB015
:100B500005460C460121084600F0A4FB00F018FFF2
:100B6000154800F05DF8154800900195102002909E
:100B700003940020049080200590002006900790A8
:100B800008904FF48050099000200A9069460A4866
:100B900000F00BF90121084800F036F8012202218B
:100BA000054800F0F9F8012280210448001F00F0F8
:100BB000EAFC0BB030BD00004400024004380140A4
:100BC00000BFFEE77047000010B54FF4005000F082
:100BD000CDF8012806D10020034948704FF4E040C9
:100BE00000F004F810BD00009000002000F08051DB
:100BF00011B10349086001E00249486070470000F4
:100C0000040402400000024021B1026842F00102E7
:100C1000026004E002684FF6FE731A4002607047FB
:100C200001684FF6FE7211400160002101604160D1
:100C30008160C1604B49884208D14A4908394968F6
:100C400041F00F01474A083A51608AE045491431A2
:100C5000884208D143490839496841F0F001414AC6
:100C6000083A51607DE03F492831884208D13D492A
:100C70000839496841F470613A4A083A516070E0B5
:100C800038493C31884208D136490839496841F42D
:100C90007041344A083A516063E032495031884229
:100CA00008D130490839496841F470212D4A083A81
:100CB000516056E02B496431884208D129490839EE
:100CC000496841F47001274A083A516049E02549D2
:100CD0007831884208D123490839496841F0706168
:100CE000204A083A51603CE01F49884206D1011F62
:100CF000096841F00F01021F116032E01A491431F6
:100D0000884208D11849091F096841F0F001164AC4
:100D1000121F116025E014492831884208D1124978
:100D2000091F096841F470610F4A121F116018E031
:100D30000D493C31884208D10B49091F096841F42B
:100D40007041094A121F11600BE007495031884277
:100D500007D10549091F096841F47021024A121F91
:100D6000116070470800024008040240014600205C
:100D7000002201F0805313B1054B1A6801E0054BC6
:100D80001A6802EA01030BB1012000E0002070475D
:100D900000040240000002401AB103680B430360E4
:100DA00002E003688B430360704710B500220268BD
:100DB00047F6F0739A430C6A8B6823430C6923430C
:100DC0004C6923438C692343CC6923434C6A2343F6
:100DD0008C6A23431A430260CB6843600B688360CC
:100DE0004B68C36010BD70477047000051B182006E
:100DF000A2F1C042126842F001038200A2F1C04297
:100E0000136009E08200A2F1C0421268034B1A404D
:100E10008300A3F1C0431A6070470000FEFF0F007B
:100E2000D0E901121143C2681143026911434269BA
:100E3000114382691143C2691143026A1143426A34
:100E40001143826A1143C26A1143026B1143026863
:100E50009200A2F1C0421160816808290BD101689B
:100E60008900A1F1C041096841F040020168890090
:100E7000A1F1C0410A60416B0968426B526841EAC6
:100E80000211426B926841EA0221426B928941EA67
:100E90000241426B128A41EA0251426B127D41EAE1
:100EA0000261426B926911430268521C9200A2F1E6
:100EB000C0421160C16AB1F5804F1BD1816B0968D6
:100EC000826B526841EA0211826B926841EA022108
:100ED000826B128A41EA0251826B127D41EA026101
:100EE000826B9269114302689200A2F1C042C2F87B
:100EF000041107E06FF0704201688900A1F1C04160
:100F0000C1F8042170472DE9F04102460025002672
:100F1000002000230024002791F803C00CF00F05E7
:100F200091F803C00CF0100CBCF1000F03D091F845
:100F300002C04CEA050591F800C0BCF1000F31D0A9
:100F4000146800202BE04FF0010C0CFA00F3B1F80C
:100F500000C00CEA03069E4220D183004FF00F0C24
:100F60000CFA03F7BC4305FA03FC4CEA040491F8BD
:100F700003C0BCF1280F06D14FF0010C0CFA00FCA5
:100F8000C2F814C00AE091F803C0BCF1480F05D1C3
:100F90004FF0010C0CFA00FCC2F810C0401C0828ED
:100FA000D1D31460B1F800C0BCF1FF0F34DD546838
:100FB00000202EE000F1080C4FF0010808FA0CF3B5
:100FC000B1F800C00CEA03069E4221D183004FF025
:100FD0000F0C0CFA03F7BC4305FA03FC4CEA0404BB
:100FE00091F803C0BCF1280F05D100F1080C08FAF4
:100FF0000CF8C2F8148091F803C0BCF1480F07D177
:1010000000F1080C4FF0010808FA0CF8C2F8108043
:10101000401C0828CED35460BDE8F08101617047C0
:101020004FF6FF710180022181700421C170704769
:1010300000BFFEE700BFFEE710B50020FFF7F8FB9A
:1010400010BD10B50120FFF7F3FB10BD10B5022055
:10105000FFF7EEFB10BD000010B50246002012B1F4
:10106000012A0FD103E0094BDB68D8B20BE0074B34
:10107000DB6823F0FF03054CE3602346DB680B438A
:10108000E36000E000BF00BF10BD000000100140A1
:1010900070B505460C466078A84212D10120E07078
:1010A0002078401C20702078192807DDA07828B906
:1010B0000020E0700120A07060688047E0688047F1
:1010C0000AE0E078012801D1A068804720698047C4
:1010D00000202070E070A07070BD00002DE9F04786
:1010E0000746884614461D46DDF820902B462246CA
:1010F0004146384600F00EF8002603E00448A0F808
:101100000090761C04FB05F0B042F7D8BDE8F087EC
:101110000008006C2DE9F04104460D4616461F46B6
:101120002A20FFF79DFC2012FFF7A0FCE0B2FFF79A
:101130009DFCA119491EC1F30F20FFF797FCA119CF
:10114000491EC8B2FFF792FC2B20FFF789FC28123A
:10115000FFF78CFCE8B2FFF789FCE919491EC1F3DF
:101160000F20FFF783FCE919491EC8B2FFF77EFC88
:101170002C20FFF775FCBDE8F08100002DE9F05F41
:1011800006468B4617469846102308225946304695
:10119000FFF7C0FF00242AE006EBC40188B2102349
:1011A00008225946FFF7B6FF00251CE0385D2038BD
:1011B000114901EB001010F805A04FF000090DE0F7
:1011C0000AF0010008B90B9800E00A980B49088062
:1011D0004FEA6A0A09F1010000F0FF09B9F1080FAE
:1011E000EEDB681CC5B2102DE0DB601C84B2444508
:1011F000D2DBBDE8F09F0000441C00080008006C32
:101200007047000070B5002100230F22C47804B39A
:10121000154C246804F4E064C4F5E064210AC1F1CB
:101220000403CA40447804FA03F18478144021434B
:1012300009010E4C0678A155047804F01F0501241D
:10124000AC4005786D11AD0005F1E025C5F8004111
:1012500009E0047804F01F050124AC40044D067831
:10126000761145F8264070BD0CED00E000E400E08A
:1012700080E100E002490143024A1160704700002A
:101280000000FA050CED00E0704700000146002068
:10129000034A506820F44040084350607047000003
:1012A0000010024029B1064A52690243044B5A61B8
:1012B00004E0034A52698243014B5A6170470000BF
:1012C0000010024029B1064A92690243044B9A6118
:1012D00004E0034A92698243014B9A61704700001F
:1012E0000010024030B500210022002400232D4DC3
:1012F0006D6805F00C0121B1042905D0082923D11E
:1013000005E0294D056022E0274D05601FE0254DD1
:101310006D6805F47012234D6D6805F48034022564
:1013200005EB92421CB9214D554305600BE01D4D64
:101330006D6805F400351DB11C4D5543056002E094
:10134000194D5543056002E0174D056000BF00BF11
:10135000144D6D6805F0F0010909154D6B5C0568C9
:10136000DD4045600F4D6D6805F4E061090A104DE0
:101370006B5C4568DD4085600A4D6D6805F4605121
:10138000C90A0B4D6B5C4568DD40C560054D6D6855
:1013900005F44041890B074D6B5CC568B5FBF3F55F
:1013A000056130BD0010024000127A0000093D00C6
:1013B0001400002024000020704710B500F002F84F
:1013C00010BD00000CB5002001900090334800686B
:1013D00040F480303149086000BF3048006800F4B4
:1013E000003000900198401C0190009818B90198B5
:1013F000B0F5A06FF1D12948006800F4003010B1B9
:101400000120009001E0002000900098012843D1C5
:101410002348006840F01000214908600846006831
:1014200020F0030008600846006840F002000860F1
:101430001A484068194948600846406848600846AC
:10144000406840F4806048600846406820F47C10A2
:1014500048600846406840F4E81048600846006864
:1014600040F08070086000BF0C48006800F0007019
:101470000028F9D00948406820F003000749486077
:101480000846406840F00200486000BF03484068DA
:1014900000F00C000828F9D10CBD0000001002403B
:1014A00000200240012001490870704734000020EC
:1014B00010B51348006840F0010011490860084663
:1014C0004068104908400E494860084600680E49C7
:1014D00008400B4908600846006820F48020086036
:1014E0000846406820F4FE0048604FF41F00886002
:1014F000FFF763FF4FF000600449086010BD000073
:10150000001002400000FFF8FFFFF6FE08ED00E0CB
:101510007047000010B540F225510B4800F049F823
:1015200058B10948001D0088C1B208480278007807
:10153000401C064B1870981C815440F225510248FB
:1015400000F006F810BD00000038014090000020B7
:1015500010B50022002340F66A14A14200D100BF5A
:101560000A1201249440A3B2DC43048010BD21B1CF
:10157000828942F40052828104E082894DF6FF7331
:101580001A40828170471AB1838A0B43838202E03A
:10159000838A8B438382704702460020B1F5007F27
:1015A00000D100BF13880B400BB1012000E00020E8
:1015B000704770B50246002400230025002040F645
:1015C0006A16B14200D100BFC1F3421501F01F03FA
:1015D000012606FA03F3012D02D19689334006E075
:1015E000022D02D1168A334001E0968A33400C1254
:1015F000012606FA04F41688344013B10CB1012018
:1016000000E0002070BDF0B5034600240026002550
:10161000002040F66A17B94200D100BF1846C1F356
:10162000421401F01F06012707FA06F5012C01D12B
:101630000C3004E0022C01D1103000E014301AB15B
:1016400007682F43076002E00768AF430760F0BDFB
:101650002DE9F04786B005460E460024A24600BF9D
:10166000A1460027B08900B100BF2F462C8A4CF656
:10167000FF700440F08804432C82AC894EF6F310CE
:101680000440B08831890843718908430443AC8120
:10169000AC8A4FF6FF400440B0890443AC8201A8F5
:1016A000FFF720FE1F48874202D1DDF810A001E0BD
:1016B000DDF80CA0A88900F4004040B10AEBCA0094
:1016C00000EB0A1031684900B0FBF1F807E00AEBC3
:1016D000CA0000EB0A1031688900B0FBF1F8642001
:1016E000B8FBF0F004012009642101FB1089A889EE
:1016F00000F4004040B1322000EBC900B0FBF1F033
:1017000000F00700044308E0322000EB09106421D8
:10171000B0FBF1F000F00F0004432C8106B0BDE8EF
:10172000F087000000380140C1F308028280704752
:1017300000BFFEE770B504460D4614212046FEF7B3
:101740001AFD03486060A060E0602061657070BDB4
:10175000F3170008704710B54FF0E0208069C4B25D
:10176000002221461046FEF701FE10BD704770B5FD
:10177000FEF7F0FD0546082408E0601E012101FA8D
:1017800000F0284000B903E0601EC4B2002CF4DC75
:1017900000BF601EC2B201210846FEF7E7FD70BD22
:1017A000704710B5FEF7D6FDFF2805D00022FF21B7
:1017B0001046FEF7DBFD04E0002211461046FEF75E
:1017C000D5FD10BD704770B5FEF7C4FD0546002479
:1017D00006E00120A040284000B103E0601C44B2B4
:1017E000082CF6DB00BFE2B200210120FEF7BEFDAF
:1017F00070BD704700B58BB001210846FFF752FD60
:101800001148FFF70DFA114800901148019000208F
:101810000290032003900020049080200590400057
:101820000690800007902020089000020990002078
:101830000A9069460448FFF7B8FA01210248FFF709
:10184000E3F90BB000BD0000080002404C24014049
:101850002800002008B501210C20FFF733FD0320EC
:10186000ADF8000000208DF8030069460548FFF739
:101870004AFB0220ADF8000069460348FFF743FB2E
:1018800008BD0000000C01400008014000B597B001
:101890000220019000200290052003900020049077
:1018A000059006904FF08050079006200890002089
:1018B00009900A9010200B9000200C900E900F9031
:1018C00010904FF480501190002012904FF48040FF
:1018D00013900020149001A8159016900121080281
:1018E000FFF7E0FC08A8FFF79BFA01210620FFF7AD
:1018F0007DFA17B000BD000010B501214FF4B070A3
:10190000FFF7E0FC1F48006800F0FF201D49086059
:101910000846006840F0BB100860081D0068002001
:10192000091D08600846006840F0BB300860164892
:10193000006820F00F00144908600846006840F075
:101940000B0008600846406820F470204860084694
:10195000406840F4302048600C48006820F0704037
:101960000A4908600846006840F030400860081DD9
:1019700000680020091D08600846006840F0BB3080
:10198000086010BD00140140002001400018014013
:1019900008B54FF4C060FFF76DFC0E208DF8000015
:1019A00001208DF801008DF802008DF803006846D3
:1019B000FFF728FC08BD000008B501210420FFF74F
:1019C00081FC4FF40070ADF8000018208DF8030082
:1019D00003208DF8020069460748FFF794FA4FF498
:1019E0008060ADF8000004208DF8030069460248CD
:1019F000FFF789FA08BD00000008014008B54FF460
:101A0000C060FFF737FC25208DF8000000208DF81E
:101A100001008DF8020001208DF803006846FFF7F1
:101A2000F1FB08BD0FB4054B10B503A9044A029899
:101A300000F02CF810BC5DF814FB0000ED1B000852
:101A4000300000200FB4084B10B504A902AA039877
:101A500000F01CF8044602A9002000F0C1F820465E
:101A600010BC5DF814FB0000E11B000802E008C890
:101A7000121F08C1002AFAD170477047002001E008
:101A800001C1121F002AFBD1704700002DE9FF4F52
:101A900089B09B460446002506E025280BD05A460F
:101AA0000B999047641C6D1C20780028F5D10DB06F
:101AB0002846BDE8F08F0027B8460122474900E0DC
:101AC000074314F8013F203B02FA03F00842F7D124
:101AD00020782E2819D114F8010F47F004072A287E
:101AE0000ED06FF02F022078A0F1300109290CD818
:101AF00008EB880102EB410100EB0108641CF2E7EE
:101B00000A98641C50F8048B0A9020780028CED0E4
:101B1000642808D0692806D075281ED05A460B992B
:101B200090476D1C58E00A994FF00A0901C90A91C3
:101B3000002802DA40422D2102E0390504D52B218C
:101B40008DF82010012103E0F90704D02021F7E7E8
:101B50008A4608AE0DE00021FAE70A994FF00A091B
:101B600001C90A91F7E74946FEF717FB303106F83D
:101B7000011D0028F7D1ADEB060000F12009780720
:101B800001D44FF00108C84502DDA8EB090000E0D0
:101B900000208046002706E008A85A46C05D0B9941
:101BA00090476D1C7F1C5745F6DB04E030205A46F9
:101BB0000B9990476D1CB8F10001A8F10108F5DC04
:101BC00005E016F8010B5A460B9990476D1CB9F1C8
:101BD0000001A9F10109F4DC641C65E70928010092
:101BE0000A68531C0B6010707047000070B5044603
:101BF0000D46E1B20548FFF797FD00BF40210348BD
:101C0000FFF7CAFC0128F9D1204670BD0038014019
:101C1000FEF718FEFEF78FFB13E0FEF7ABFC01208A
:101C2000FEF790FC08B1FEF7E1FB0220FEF78AFC0C
:101C300008B1FEF7B7FB0520FEF784FC08B1FEF7FC
:101C40003FFDEAE700000000000000000000000087
:101C5000000000000000000808080808080800004C
:101C600008080000004824241200000000000000C2
:101C7000000000000000004848487E2424247E2400
:101C8000242400000000103C5252121C30505052CC
:101C9000523C1010000000222515150D2A585454EE
:101CA000522200000000000C1212120A7625291997
:101CB000916E000000060404020000000000000015
:101CC0000000000000402010100808080808081054
:101CD0001020400000020408081010101010100816
:101CE000080402000000000008086B1C1C6B0808B8
:101CF000000000000000000000101010FE10101086
:101D000000000000000000000000000000000000D3
:101D10000604040200000000000000007E00000035
:101D200000000000000000000000000000000000B3
:101D300006060000000040202020101008080804BB
:101D40000402020000000018244242424242424281
:101D500024180000000000101C10101010101010AB
:101D6000107C00000000003C424242402010080469
:101D7000427E00000000003C4242402018204042C9
:101D8000423C000000000020303028242422FE20A5
:101D900020F800000000007E0202021E22404042A5
:101DA000221C0000000000182402023A464242426F
:101DB000443800000000007E42202010100808086F
:101DC000080800000000003C42424224182442421D
:101DD000423C00000000001C22424242625C404043
:101DE0002418000000000000000018180000000087
:101DF00018180000000000000000000800000000AB
:101E00000008080800000040201008040204081020
:101E1000204000000000000000007E00007E000066
:101E200000000000000000020408102040201008FC
:101E3000040200000000003C424246201010100046
:101E4000181800000000001C225A55555555553AE7
:101E5000423C00000000000808181414243C2242F0
:101E600042E700000000001F2222221E22424242BE
:101E7000221F00000000007C4242010101010142DA
:101E8000221C00000000001F224242424242424205
:101E9000221F00000000003F4212121E12120242D6
:101EA000423F00000000003F4212121E12120202C6
:101EB000020700000000003C2222010101712122E2
:101EC000221C0000000000E7424242427E424242A1
:101ED00042E700000000003E08080808080808085B
:101EE000083E00000000007C1010101010101010B0
:101EF0001010110F0000007722120A0E0A1212228F
:101F00002277000000000007020202020202020221
:101F1000427F00000000007736363636362A2A2AFD
:101F20002A6B0000000000E346464A4A52525262C1
:101F3000624700000000001C2241414141414141F3
:101F4000221C00000000003F424242423E020202C8
:101F5000020700000000001C224141414141414D67
:101F6000321C60000000003F4242423E1212222218
:101F700042C700000000007C424202041820404298
:101F8000423E00000000007F4908080808080808D1
:101F9000081C0000000000E7424242424242424226
:101FA000423C0000000000E742422224241414189E
:101FB000080800000000006B2A2A2A2A2A36141476
:101FC00014140000000000E74224241818182424E8
:101FD00042E70000000000772222141408080808D5
:101FE000081C00000000007E21201010080404429C
:101FF000423F000000780808080808080808080898
:1020000008087800000002040404080808101020E2
:1020100020204040001E1010101010101010101042
:1020200010101E0000182400000000000000000036
:1020300000000000000000000000000000000000A0
:10204000000000FF00060800000000000000000083
:1020500000000000000000000000001C22302C22C4
:10206000326C0000000000000302021A26424242C5
:10207000261A00000000000000000038440202029E
:1020800044380000000000006040407C4242424270
:1020900062DC0000000000000000003C42427E02C2
:1020A000423C0000000000003048083E08080808D4
:1020B000083E0000000000000000007C22221C02FC
:1020C0003C42423C000000000302023A46424242C7
:1020D00042E700000000000C0C00000E0808080891
:1020E000083E000000000030300000382020202092
:1020F0002020221E0000000003020272120A0E12AB
:1021000022770000000000080E08080808080808E8
:10211000083E0000000000000000007F92929292B2
:1021200092B70000000000000000003B464242421F
:1021300042E70000000000000000003C4242424232
:10214000423C0000000000000000001B264242420A
:10215000261A0207000000000000005864424242B4
:10216000645840E000000000000000774C040404C4
:10217000041F0000000000000000007C42023C4000
:10218000423E0000000000000008083E0808080861
:10219000483000000000000000000063424242425C
:1021A00062DC00000000000000000077222214140E
:1021B0000808000000000000000000DB91525A2ACD
:1021C00024240000000000000000006E24181818ED
:1021D0002476000000000000000000E742242418DC
:1021E00018080806000000000000007E2210080801
:1021F000447E000000C0202020202020102020202D
:102200002020C0001010101010101010101010100E
:10221000101010100003040404040404080404044F
:1022200004040300045A2000000000000000000025
:1022300000000000542200080000002034000000CC
:102240006C1A0008882200083400002044050000B1
:102250007C1A000800A24A040000000000000000F0
:10226000010203040607080900000000010203043C
:102270000102030406070809020406080000000022
:08228000000000000000000056
:0400000508000131BD
:00000001FF
